:020000040800F2
:10000000504F00209D010008771600089915000840
:10001000751600082D020008291B000800000000CA
:1000200000000000000000000000000005010008C2
:10003000610200080000000049010008E9170008FB
:10004000B7010008B7010008B7010008B7010008B0
:10005000B7010008B7010008B7010008B7010008A0
:10006000B7010008B7010008B7010008B701000890
:10007000310200083D020008B7010008B70100087E
:100080004902000855020008B7010008B70100083E
:10009000B7010008B7010008B7010008B701000860
:1000A000B7010008AD180008B7010008B701000843
:1000B000B7010008B7010008B7010008B701000840
:1000C000B7010008B7010008B70100087916000859
:1000D000B7010008B70100081D1B0008B7010008A0
:1000E000B7010008B7010008B7010008DFF810D019
:1000F00000F08AF800480047691B0008AFF3008051
:10010000504F0020224B19680868B0E8F00F80F3C8
:100110000988BFF36F8F4FF0000080F311884EF015
:100120000D0E70470000000006480068006880F36C
:10013000088862B661B6BFF34F8FBFF36F8F00DFE1
:1001400000BF00BF08ED00E0EFF30980BFF36F8F41
:100150000F4B1A6820E9F00F106008B54FF05000FF
:1001600080F31188BFF34F8FBFF36F8F02F0C4FC91
:100170004FF0000080F31188BDE808401968086856
:10018000B0E8F00F80F30988BFF36F8F704700BFAE
:100190001C000020EFF305807047000006488047F0
:1001A00006480047FEE7FEE7FEE7FEE7FEE7FEE75C
:1001B000FEE7FEE7FEE7FEE765180008ED00000831
:1001C00040EA01039B0703D009E008C9121F08C0D9
:1001D000042AFAD203E011F8013B00F8013B521E59
:1001E000F9D27047D2B201E000F8012B491EFBD2D0
:1001F00070470022F6E710B513460A460446194632
:10020000FFF7F0FF204610BD064C074D06E0E06802
:1002100040F0010394E8070098471034AC42F6D34D
:10022000FFF768FF0C3600082C360008FEE7704721
:10023000014800F063B800002C010020014800F0E4
:100240005DB8000070010020014800F057B80000C0
:10025000B4010020014800F051B80000F80100206E
:100260007047704710B590F821100024022903D080
:100270000421816301243DE001680A6822F00E0236
:100280000A6001680A6822F001020A601A4A0168DD
:10029000914201D1012121E0174A1432914201D14A
:1002A00010211BE0144A2832914201D1891515E032
:1002B000114A3C32914201D189140FE00E4A50326A
:1002C000914202D14FF4803108E00B4A64329142EE
:1002D00002D14FF4801101E04FF08071064A083AD4
:1002E0005160012180F82110002180F82010416B1D
:1002F00001B18847204610BD080002402DE9F05F9B
:10030000C16B0C6801680B68D0F840C0042202FA87
:100310000CF2494DDFF824A1494E4A4FDFF828B1CD
:10032000DFF828E122422CD05A072AD50A68920623
:1003300003D40A6822F004020A600168A94201D1CC
:10034000042219E0514501D1402215E0B14202D109
:100350004FF4806210E0B94202D14FF480420BE0CA
:10036000594502D14FF4802206E0714502D14FF485
:10037000800201E04FF080622F4908394A60C16A6B
:100380003BE04FF0020808FA0CF818EA040F4FF0AF
:1003900000094FF0010235D05FEA837832D50B684F
:1003A0009B0605D40B6823F00A030B6080F821201C
:1003B0000168A94201D1022219E0514501D1202250
:1003C00015E0B14202D14FF4007210E0B94202D1FF
:1003D0004FF400520BE0594502D14FF4003206E0D1
:1003E000714502D14FF4001201E04FF00072124942
:1003F00008394A6080F82090816A00291AD0BDE847
:10040000F05F0847082505FA0CF5254212D01B07B6
:1004100010D50B6823F00E030B6090F84010C36BEF
:1004200002FA01F15960826380F8212080F820905F
:10043000016BE2E7BDE8F09F080002401C000240AB
:100440003000024044000240580002406C0002406C
:1004500030B528B308C8134914221944B1FBF2F18E
:100460008900C16310498163022141771A6843F60C
:10047000F0718A43D0E900142143D0E902452C43AE
:100480002143046921434469214384692143114381
:10049000196000214163012242770177084630BD8F
:1004A000012030BDF8FFFDBF000002402DE9F84FEC
:1004B000DFF8B891002409F1040A0AF1040B23467D
:1004C0000F270BF1040EC9E00125A5402A40AA42DE
:1004D0007DD1674ED1F804C0ACEB0608B44532D0EC
:1004E00014DCBCF1030F3AD009DCBCF1000F2AD0B8
:1004F000BCF1010F1CD0BCF1020F31D11DE0BCF1E9
:10050000110F17D0BCF1120F2AD119E0B8F5881FCE
:1005100019D006DCB8F5803F15D0B8F5801F1FD183
:1005200011E0B8F5001F0ED0B8F5041F18D10AE08D
:10053000CB6815E0CB681B1D12E0CB6808330FE0D9
:10054000CB680C330CE08B682BB1012B4FF0080308
:1005500003D0456104E0042302E0056100E00023CC
:10056000FF2A01D8064601E000F104064FEA84059F
:1005700001D9A5F12005D6F8008007FA05FC28EA84
:100580000C0803FA05F548EA0508C6F800804D682E
:10059000ED0062D5374DAE6946F00106AE61AD693A
:1005A00024F0030605F001050095334D06EB050C1C
:1005B000DCF80850A607360F07FA06F825EA080502
:1005C000DFF8B880404503D14FF0000817E044E061
:1005D000DFF8AC80404502D14FF001080FE0DFF8B2
:1005E000A480404502D14FF0020808E0DFF898806F
:1005F000404502D14FF0030801E04FF0040808FA2B
:1006000006F848EA0508CCF808804D68D9F800607B
:10061000ED034D4601D5164300E096432E604D682C
:10062000DAF80060AD03554601D5164300E0964365
:100630002E604D68DBF80060ED025D4601D5164383
:1006400000E096432E604D68DEF80060AD0275460E
:1006500001D5164300E096432E60641C0D682A46BF
:10066000E5407FF431AFBDE8F88F000000040140A1
:10067000000011100010024000000140000801407D
:10068000000C014000100140001401400AB101615A
:1006900070470904FBE700000148806870470000CC
:1006A0000C00002002488168027811448160704784
:1006B0000C000020074810B5016841F010010160EE
:1006C000032000F08FF8002000F006F800F03EF85C
:1006D000002010BD0020024000B5014687B0002276
:1006E000192000F05FF8192000F04EF813488169D6
:1006F00041F400618161806905A900F40060069001
:10070000684600F017F900F045F90D490D4AB0FBB5
:10071000F1F10D48491E0260416040F2E7320021CC
:10072000C0E90321816000F01AFD10B1012007B07B
:1007300000BD054800F02FFDF9E700000010024061
:1007400040420F00002C01403C0200200C4808B53C
:10075000816941F001018161816901F0010100912C
:10076000C16941F08051C161C06900F080500090C2
:100770000448416821F0E06141F00071416008BD2A
:100780000010024000000140002809DB00F01F02B9
:10079000012191404009800000F1E020C0F80011E3
:1007A00070470000F0B40E4B1B680C46C3F30223E5
:1007B000C3F10705042D00D90425191D072901D20D
:1007C000002300E0DB1E012606FA05F1491E214048
:1007D00099409E40761E16403143F0BC01F0A5B909
:1007E0000CED00E0064900F0070208684FF6FF0331
:1007F000184040EA0220034A104308607047000096
:100800000CED00E00000FA052DE9F0470F46050069
:1008100061D0434E306800F00700B84209D230681A
:1008200020F0070038433060306800F00700B8421D
:1008300051D128683B4C810712D5400703D5606829
:1008400040F4E06060602878000703D5606840F4F9
:10085000605060606068A96820F0F0000843606044
:100860002878C00728D06868012810D0216802289D
:1008700010D0890700292EDA616821F003010143B5
:100880006160FFF709FF804641F288390DE0216879
:100890008903EFE78901EDE7FFF7FEFEA0EB080112
:1008A000494502D90320BDE8F0876068696800F017
:1008B0000C00B0EB810FEFD1306800F00700B842B8
:1008C0000BD9306820F0070038433060306800F002
:1008D0000700B84201D00120E5E72878400705D598
:1008E0006068E96820F4E0600843606028780007E9
:1008F00006D56068296920F4605040EAC100606054
:1009000000F058F86168084AC1F30311515CC8400F
:100910000649086006480068FFF7DEFE0020C2E7CF
:100920000020024000100240D035000818000020CE
:10093000100000200F2202600C4A536803F00303EA
:100940004360536803F0F0038360536803F4E0638B
:10095000C36052684FF4E06303EAD20202610448C4
:10096000006800F0070008607047000000100240B7
:10097000002002400448054900684968044AC1F360
:100980000221515CC840704718000020001002404E
:10099000E03500080448054900684968044AC1F385
:1009A000C221515CC840704718000020001002406E
:1009B000E035000812A185B00FC98DE80F0014A022
:1009C000144A006804905168134801F00C03042B8A
:1009D00010D0082B0ED1C1F38343C9031DF80300C7
:1009E0000AD5516804AAC1F34041515C0A4A5043F8
:1009F000B0FBF1F005B0704708494843FAE7000042
:100A000002030405060708090A0B0C0D0E0F10104F
:100A1000010200000010024000127A0000093D00AF
:100A20002DE9F84F040070D02078C04DC00749D0A0
:100A30006868C0F38100012807D06868C0F38100AE
:100A4000022809D16868C00306D52868800339D513
:100A500060680028E7D035E06068B0F5803F0BD0D3
:100A600010B1B0F5A02F11D0286820F48030286094
:100A7000286820F4802002E0286840F48030286054
:100A8000606890B1FFF708FE06460AE0286840F467
:100A900080202860F0E700BFFFF7FEFD801B642880
:100AA00073D828688003F7D50CE0FFF7F5FD0646FC
:100AB00005E000BFFFF7F0FD801B6428F0D8286830
:100AC0008003F7D420789A4E80074FF001094FF049
:100AD000000839D5686810F00C0F07D06868C0F3BB
:100AE0008100022809D16868C00306D428688007FD
:100AF00014D52069012808D110E02069B0B1C6F8EA
:100B00000090FFF7C9FD074605E00AE1FFF7C4FDC5
:100B1000C01B0228C4D828688007F7D528686169F7
:100B200020F0F80040EAC10028600DE0C6F800801F
:100B3000FFF7B2FD074604E0FFF7AEFDC01B022839
:100B400023D828688007F7D4207800072CD5794867
:100B5000A169D9B1C0F80090FFF79EFD074604E0F7
:100B6000FFF79AFDC01B02280FD8686A8007F7D5E7
:100B700071484FF4FA510068B0FBF1F0009000BFEB
:100B80000098411E0091FAD20EE080E0C0F800808B
:100B9000FFF782FD074604E0FFF77EFDC01B022839
:100BA00075D8686A8007F7D42078400760D5E8696F
:100BB0000027C00008D4E86940F08050E861E86987
:100BC000012700F0805000905C480168C90513D4EB
:100BD0000168834641F480710160FFF75DFD824644
:100BE00006E000BFFFF758FDA0EB0A0064284ED8CE
:100BF000DBF80000C005F5D5E06801280AD008B18F
:100C0000052813D0286A20F001002862286A20F005
:100C1000040002E0286A40F001002862E06841F226
:100C2000883B98B1FFF738FD82460BE0286A40F018
:100C300004002862EEE700BFFFF72EFDA0EB0A01DB
:100C400059455AD8286A8007F6D50CE0FFF724FDED
:100C5000824605E0FFF720FDA0EB0A0159454CD87C
:100C6000286A8007F6D41FB1E86920F08050E86157
:100C7000E06988B36968C1F38101022944D0022880
:100C8000C6F8608004D0FFF707FD044638E034E082
:100C9000FFF702FD074604E0FFF7FEFCC01B022839
:100CA0002BD828688001F7D4206AB0F5803F05D1A1
:100CB0006868A16820F4003008436860D4E908013E
:100CC0000843696821F4741108436860C6F86090AD
:100CD000FFF7E2FC044606E025E000BFFFF7DCFC7E
:100CE000001B022809D828688001F7D51BE000BF47
:100CF000FFF7D2FC001B022802D90320BDE8F88FC1
:100D000028688001F4D40EE00128F7D06868226AD0
:100D100000F48031914204D1616A00F4701088427D
:100D200001D00120EAE70020E8E7000000100240BF
:100D3000000042428004424218000020007000403F
:100D40007047000038B50446006842688168C943AE
:100D50004B0606D5CB0704D1D3435B0601D4216CE7
:100D600005E08B0708D4D3431B0605D4616C01B0A2
:100D70002046BDE8304008478B0601D54B0646D4D7
:100D8000D3439B0643D44B060AD494F85130032B2B
:100D90003ED0636D43F004036365C36883680093CA
:100DA000890609D4616D41F0010161658168009196
:100DB000016821F040010160606D002827D02068A3
:100DC000416821F0E0014160012084F85100900762
:100DD00022D02068416821F003014160104DE06C91
:100DE00040B14563E06CFFF73DFA18B1606D40F02B
:100DF00040006065A06C002809D04563A06CFFF737
:100E000031FA002803D0606D40F04000606538BDC5
:100E1000C1688068009038BD2046FFF791FF38BD5B
:100E20008516000870B5040005D00025A56294F869
:100E3000510010B106E0012070BD84F850502046EA
:100E400000F02EF8022084F851002068016821F09B
:100E500040010160D4E901010843D4E903121143C0
:100E6000084361690843218B01F400710843E1697B
:100E70000843216A0843A16A084321680860A06901
:100E8000042101EA1040216848602068C16921F40A
:100E90000061C1616565012084F85100002070BDCA
:100EA000F0B585B0002406460094019402940394A2
:100EB00000682B49884251D12A48816941F4805108
:100EC0008161816901F480510491816941F00401DB
:100ED00081618069244D00F004000490A0200090FE
:100EE000022001900320039069462846FFF7DEFAAE
:100EF0004020CDE90004694628460294FFF7D6FA5F
:100F00001B4D1A488027C5E90004C5E902472C613A
:100F10006C61AC612846EC61FFF79AFA08B1FFF703
:100F2000A0F9F5646E621148124D143001C510200D
:100F300091C5104845F810496C61AC61EC61FFF750
:100F400087FA08B1FFF78DF9B56400221146232016
:100F50006E62FFF727FC2320FFF716FC05B0F0BDFB
:100F60000030014000100240000801401C00024017
:100F70002C010020700100202DE9F84F044690F864
:100F8000500000270A9E1D4692468B464FF00109ED
:100F900001280ED0012084F85000FFF77DFB804629
:100FA00094F85100616801280CD0B1F5827F07D117
:100FB00002E00220BDE8F88FA16809B9042801D039
:100FC0000227C2E0BBF1000F27D0BAF1000F24D0F6
:100FD0001DB394F85100042802D0052084F8510074
:100FE00000206065C4F838A0E587A587C4F830B054
:100FF000E586A5862064606420680168490603D4FC
:10100000016841F040010160E068B0F5006F606880
:1010100005D0E8B3012D46D07FE0012795E008B167
:10102000012D39D1206B21680088C860206B801C9D
:101030002063E08E401EE0862EE0206881688907EC
:101040000FD5E18E69B1B9F1010F0AD1216B098881
:10105000C160206B801C2063E08E401EE0864FF054
:10106000000920688168C9070CD0E18F51B1C068C0
:10107000A16B0880A06B801CA063E08F401EE087FE
:101080004FF00109FFF708FBA0EB0800B04200E0B9
:1010900009E001D3701C50D1E08E0028CDD1E08F43
:1010A0000028CAD13FE0206B216800780873206BCC
:1010B000401C2063E08E401EE0862EE020688168A0
:1010C00089070FD5E18E69B1B9F1010F0AD1216B02
:1010D00009780173206B401C2063E08E401EE0867F
:1010E0004FF0000920688168C9070CD0E18F51B129
:1010F000C068A16B0870A06B401CA063E08F401E0D
:10110000E0874FF00109FFF7C7FAA0EB0800B042F3
:1011100002D3701C01D010E07EB1E08E0028CDD14A
:10112000E08F0028CAD142463146204600F0B2FA8C
:1011300028B101272020606507E0032705E0A068AB
:1011400018B92068C16880680090012084F85100B7
:10115000002084F8500038462CE77047704710B5DF
:10116000040003D094F83D0010B107E0012010BD49
:10117000002084F83C00204600F00CF8022084F89F
:101180003D00211D206800F097FB012084F83D0000
:10119000002010BD70470168CA6842F00102CA60B1
:1011A0000068816801F00701062903D0016841F059
:1011B0000101016000207047704770B50446006867
:1011C00001694FF00005C943890715D4C168C943B7
:1011D000890711D4E91E0161012020772068806908
:1011E0008007204602D0FFF7E7FF04E000F098F800
:1011F000204600F096F8257720680169C943490721
:1012000017D4C168C943490713D46FF004010161C1
:10121000022020772068806910F4407F204602D0A9
:10122000FFF7CAFF04E000F07BF8204600F079F8F1
:10123000257720680169C943090716D4C168C943E5
:10124000090712D46FF0080101610420207720689B
:10125000C0698007204602D0FFF7AEFF04E000F02F
:101260005FF8204600F05DF8257720680169C943E2
:10127000C90617D4C168C943C90613D46FF0100159
:101280000161082020772068C06910F4407F204663
:1012900002D0FFF791FF04E000F042F8204600F092
:1012A00040F8257720680169C943C90708D1C1689A
:1012B000C943C90704D1891E0161204600F032F8F4
:1012C00020680169C943090609D4C168C9430906F0
:1012D00005D46FF0800101612046FFF73EFF2068D2
:1012E0000169C943490609D4C168C943490605D4FF
:1012F0006FF040010161204600F01EF8206801698E
:10130000C94389060BD4C168C943890607D46FF065
:10131000200101612046BDE87040FFF71FBF70BD8E
:101320007047704700680349884201D1FFF7BAB996
:1013300070470000002C01407047704770B502688C
:1013400004461068D168536910F00F0F50D003F0B5
:10135000010501F4907635435DD0C20705D0CA057A
:1013600003D5E26B42F00102E263420705D5DA07DA
:1013700003D0E26B42F00202E263820705D5DA078E
:1013800003D0E26B42F00402E263020705D5DA07FC
:1013900003D0E26B42F00802E263E26B002A33D032
:1013A000800604D5880602D5204600F0DDFA2068C4
:1013B0004069E16BC0F38010090700D428B32046D0
:1013C00000F0C4FA2068416949061AD5416921F044
:1013D00040014161606BA0B11B494163606BFEF746
:1013E00041FF002810D0606B416BBDE8704008479A
:1013F000830610D58B060ED52046BDE8704000F060
:10140000B3BA2046FFF799FF70BD2046FFF795FF5E
:101410000020E06370BD030606D50B0604D5204608
:10142000BDE8704000F048BB4006F3D54806F1D552
:10143000D168204621F04001D160202184F8391084
:1014400000F0A9F870BD00003D19000870B5040057
:1014500004D094F83900002510B106E0012070BDD9
:1014600084F83850204600F023F8242084F839000E
:101470002068C16821F40051C160204600F0C0FA24
:101480002068016921F4904101612068416921F0DF
:101490002A0141612068C16841F40051C160E563DF
:1014A000202084F8390084F83A00002070BD000044
:1014B0002DE9F04186B00024064600940194029480
:1014C000039400682D49884254D12D48C16941F4E4
:1014D0000031C161C16901F400310491816941F0B9
:1014E000040181618069274D00F00400049004200C
:1014F0000090022001900320039069462846FEF7E1
:10150000D5FF0820CDE90004694628460294FEF77D
:10151000CDFF1E4D1C484FF08008C5E90004C5E909
:1015200002482C6187146C61C5E906472846FEF71E
:101530008FFF08B1FEF795FE75636E621248144D79
:10154000143001C51020A5E81101114845F81049D3
:101550006C61C5E90647FEF77BFF08B1FEF781FE27
:1015600035630022114626206E62FFF71BF9262004
:10157000FFF70AF906B0BDE8F08100000044004022
:1015800000100240000801406C000240B40100203D
:10159000F801002070477047FEE700002DE9F04396
:1015A00085B0002421480094019402940394816939
:1015B00041F020018161816901F02001049181697C
:1015C00041F004018161816901F0040104918169A4
:1015D00041F0080181618069DFF8548000F0080063
:1015E00041F610650490002229464046FFF74EF868
:1015F000DFF840904FF2C007002239464846FFF717
:1016000045F80095022601250396CDE90154694667
:101610004046FEF74BFF00970396CDE9015469461B
:101620004846FEF743FF05B0BDE8F08300100240D6
:1016300000080140000C01400D480C4902220160E5
:101640004FF48271416000218160C0E903120122E0
:101650004261520282613822C2618022C0E90821BF
:1016600081620A21C162FFF7DDBB0000003001404A
:1016700094000020FEE770470148FFF763BB0000BD
:101680009400002010B5406A0021C187C186FFF791
:1016900057FB10BD38B50B4600920446002280214E
:1016A00000F008F8002804D0606D40F0200060656C
:1016B000032038BD2DE9F0411D4617460E4604466D
:1016C000DDF8188008E0681C06D0FEF7E5FFA0EB07
:1016D0000800A8420BD255B12068806836EA0000A5
:1016E00030D00020B842EED10020BDE8F081206863
:1016F000416821F0E00141606068B0F5827F0BD164
:10170000A068B0F5004F02D0B0F5806F04D120681A
:10171000016821F040010160A06AB0F5005F09D1C5
:101720002068016821F4005101602068016841F4DB
:1017300000510160012084F85100002084F850001D
:101740000320D2E70120CDE78EB001208DF8040000
:1017500042208DF8050000208DF80600FF20204E65
:101760008DF807008DF8080001ADC8240022102173
:101770003046FEF78BFF012307AA01A91948009400
:10178000FFF7FAFB0220401C6428FCDB012307AAB8
:10179000691C14480094FFF7EFFB0220401C6428EA
:1017A000FCDB012307AAA91C0E480094FFF7E4FB09
:1017B000012307AAE91C0B480094FFF7DDFB012376
:1017C00007AA291D07480094FFF7D6FB0122102124
:1017D0003046FEF75BFF4FF47A7000F031FAC5E750
:1017E000000801409400002010B5502080F31188BB
:1017F000BFF34F8FBFF36F8F01F0F0FC18B10449B6
:101800004FF080500860002080F3118810BD000068
:1018100004ED00E030B58FB028216846FEF7E9FC02
:1018200014210AA8FEF7E5FC01210804CDE9001007
:101830000024029402250491CDE907504FF4E010F2
:1018400009906846FFF7ECF80F20CDE90A05680219
:10185000CDE90C4002210AA80E94FEF7D5FF0FB087
:1018600030BD00000D48016841F001010160416890
:101870000B4A1140416001680A4A11400160016849
:1018800021F480210160416821F4FE0141604FF4A0
:101890001F0181600449C0030860704700100240C6
:1018A0000000FFF8FFFFF6FE08ED00E00148FFF73B
:1018B00084BC00003C020020F0B50268164B174CB7
:1018C000174D4FF08047984205D0B84203D0A04250
:1018D00001D0A84203D122F070064A6832439842F0
:1018E00005D0B84203D0A04201D0A84203D122F4CF
:1018F0004074CA6822434C6922F08002224302608D
:101900008A68C2620A688262984201D109690163E9
:1019100001214161F0BD0000002C014000040040A5
:101920000008004010B500F0DFFE002805D0D0E927
:101930000021BDE810400846104710BD10B5406AB0
:101940000021C185C184FFF7F8FC10BD0168CA6899
:1019500022F49072CA6001684A6922F001024A6169
:10196000202180F83A10704710B590F83A102229DB
:1019700001D0022010BD8168B1F5805F11D00169EE
:10198000002901681FD0496801F07F03816A4A1C61
:1019900082620B70C18D491E0904090CC18518D0E3
:1019A0002BE00269816A002A0268526805D0D2B22F
:1019B0000A80816A491C8162ECE7C2F308020A804E
:1019C000816A891CF7E74A68816A4B1C83620A7046
:1019D000E0E70168CA6822F02002CA600168CA68AC
:1019E00022F48072CA6001684A6922F001024A61E9
:1019F000202180F83A10FFF7CDFD002010BD000037
:101A00002DE9F041044600680169E26821F4405183
:101A1000114301612169A068084361690843216895
:101A2000CA6841F20C639A430243CA602068416964
:101A3000A26921F44071114341611E492068642567
:101A40003226884202D1FEF7A5FF01E0FEF792FFA1
:101A500000EBC00101EB001160686FF01807800017
:101A6000B1FBF0F2B2FBF5F2B1FBF0F37A4303EB1A
:101A70008202B1FBF0F306EB0212B2FBF5F2B3FB0C
:101A8000F5F302F0F00202EB0312B1FBF0F3B1FB4D
:101A9000F0F0B0FBF5F0784303EB800006EB0010AC
:101AA000B0FBF5F0216800F00F0010448860BDE83D
:101AB000F08100000038014090F83910212901D050
:101AC000022070478168B1F5805F016A0BD04A1C23
:101AD0000262026809785160C18C491E0904090C30
:101AE000C1840ED017E009880268C1F30801516073
:101AF00001690029016A02D0491C0162ECE7891CD6
:101B0000FBE70168CA6822F08002CA600068C16809
:101B100041F04001C1600020704700000148FFF71C
:101B20000DBC0000EC000020FEE70907090E0028AC
:101B300004DB00F1E02080F80014704700F00F0093
:101B400000F1E02080F8141D704702E008C8121F61
:101B500008C1002AFAD170477047002001E001C196
:101B6000121F002AFBD1704708B5FEF7A3FDFFF74F
:101B700051FEFFF713FD2B48416941F0010141611E
:101B80004069002200F00100009011460C20FEF791
:101B900009FE0C20FEF7F8FD002211460D20FEF78D
:101BA00001FE0D20FEF7F0FD002211461020FEF789
:101BB000F9FD1020FEF7E8FD002211461120FEF786
:101BC000F1FD1120FEF7E0FDFFF736FD174816493D
:101BD0000C2201604FF4E131416000218160C1605D
:101BE000C0E904128161C161FFF730FC00F042F8E6
:101BF0000F4B002201210F4800F004F90E4C0C4A53
:101C00000221A060183A102000F070F8084A6060C5
:101C10003C3A0021094800F0A3F8206000F046F8A3
:101C2000FEE700000010024000440040EC000020ED
:101C3000C03500082F0200080000002049170008E6
:101C400010B5EFF3058149B9EFF3108131B90849B7
:101C50000968022905D1EFF3118111B16FF0050474
:101C600003E0002408B100F093FE204610BD000000
:101C70006C000020EFF3058058B9EFF3108040B9F5
:101C800009490868022801D030B109E0EFF311805A
:101C900030B16FF0050070470120086000207047E8
:101CA0004FF0FF30704700006C00002010B5EFF3DC
:101CB000058060B9EFF3108048B90B490868022825
:101CC00002D0012806D00BE0EFF3118040B16FF095
:101CD000050010BD0220086000F0C2FE002010BD0B
:101CE0004FF0FF3010BD00006C000020F8B5144626
:101CF0004FF00005EFF305826ABBEFF3108252BB91
:101D0000164A1268022A02D1EFF311821ABB10B3ED
:101D100009B3ACB1D4E902326BB1502A1BD32269AA
:101D2000CAB1676900FB01F6B74214D300250095DC
:101D300000F08CFF07E072B9226962B9626952B99A
:101D4000002200F05FFF050005D00CB1216800E023
:101D5000002100F0E7FD2846F8BD00006C000020DF
:101D6000F0B585B04FEA01034FF00004EFF30581B1
:101D70000394A1BBEFF3108189BB214909680229B3
:101D800002D1EFF3118151BB48B3802618218DF8A1
:101D9000104004AD42B3176807B13D4697691FB1C3
:101DA00039467F1E382F02D21779FF0702D0002054
:101DB00005B0F0BD576907B1BE08D2F808C0BCF144
:101DC000000F0DD0D4685C2C18D312693AB137B12A
:101DD0008DE806103246294601F0C1F903900DE066
:101DE000D7685FB912694AB903AACDE90012B2B245
:101DF000294601F087F9012800D003940398D7E71A
:101E00006C0000202DE9FC411C461746884606461A
:101E10004FF00005EFF3058078BBEFF3108060BB57
:101E200017480068022802D1EFF3118028BB26B3BF
:101E3000082000F0EDFB03001FD0B8F1000FC3E94C
:101E4000006711D001220F4E00208CB1216801B132
:101E50000846A16851B1E468302C0ED3CDE9006189
:101E6000012101F013FB07E00022ECE7E16821B952
:101E70000121009601F0F0FA05462846BDE8FC81F4
:101E80006C000020251900082DE9F041134C0F4685
:101E9000054666692068001D00F04AFC681C07D1F1
:101EA00037B12168BDE8F0410D48091D00F090BC34
:101EB00020683544B5424560216805D2A068BDE878
:101EC000F041091D00F06CBC6068091D00F068FC61
:101ED000206B854200D22563BDE8F0811C00002004
:101EE0006C0700202DE9F041054600F07DFC2D4CEB
:101EF0002069401C206120682B4F10B1E06930B38D
:101F00002BE025602069012827D1002606EB8600FA
:101F100007EB800000F036FC761C382EF6D3234801
:101F200000F030FC2148143000F02CFC1F48283011
:101F300000F028FC1D483C3000F024FC1B485030C9
:101F400000F020FC194860601430A06005E02068B3
:101F5000E96AC06A884200D82560E06A401CE062F5
:101F60006864E86AA169884200D9A06100EB80003A
:101F700007EB8000291D00F02BFC00F055FCE06908
:101F800000280CD02068E96AC06A884207D2084954
:101F90004FF080500860BFF34F8FBFF36F8FBDE8E5
:101FA000F08100001C000020BC0200201C07002063
:101FB00004ED00E038B500F017FC104CA068C8B97B
:101FC0000F4800F0DFFB0E48143000F0DBFB0C483C
:101FD0002060143060600A4B00202833009003F129
:101FE000500210210A2000F031FEA06010B105A1BE
:101FF00000F098FCBDE8384000F016BC5800002006
:1020000080070020546D72510000000030B4026C53
:102010000B46002A0BD0C1681144C1604468A1423C
:1020200001D30168C16030BC1846FEF7C9B830BCA6
:1020300070472DE9F041856B174604460026026C77
:1020400082B1C7B1E068FEF7BBF8E168206C091AFD
:10205000E1602268914202D26168081AE060022FB2
:1020600016D017E02068A8B9606801F01BF9064691
:10207000002060600EE0A068FEF7A2F8216CA06866
:102080000844A0606168884204D32068A06001E031
:1020900005B16D1E6D1CA5633046BDE8F08110B51D
:1020A000044690F8590058B101280CD002280FD0EE
:1020B000502080F31188BFF34F8FBFF36F8FFEE77F
:1020C000206B00F0C5FB2046BDE8104000F0C0BB0F
:1020D00010BD000010484FF47051420706D0C01DDB
:1020E0000D4920F00700411AC1F570510B4A002339
:1020F0000144C2E900030839103A21F007011160D8
:102100004B600B600B1AC0E9001393604FF0004066
:102110005360D06070470000500F00208000002006
:10212000144E154CA6F29C474FF08058DFF84C90A7
:1021300012E000BF00F058FBF068C568281D00F0F1
:10214000F7FA2069401E2061E068401EE06000F060
:102150006BFB2846FFF7A3FFE0680028EAD1386848
:102160000128F9D9C9F80080BFF34F8FBFF36F8FF3
:10217000F2E70000580700201C00002004ED00E0FA
:1021800070B51D46049C51B1C4F80020C4E90F018C
:102190000121204600F08EFD84F84C5070BD246073
:1021A000F4E72DE9F0470E46DDE90984174682463B
:1021B00091009946089DA522206BFEF713F86FF059
:1021C0000301206B01EB8701084420F00707780723
:1021D00007D0502080F31188BFF34F8FBFF36F8F6C
:1021E000FEE72218315C82F83410315C11B1401CDA
:1021F0001028F6D3002684F84360382D00D3372505
:10220000E562C4E91356201D00F0C7FA04F1180076
:1022100000F0C3FA2461C5F138006462A06166650C
:1022200084F858604A465146384600F06FFA2060FC
:10223000B8F1000F01D0C8F80040BDE8F0872DE9E3
:10224000F0471E46DDE9089417460D0080460ED083
:10225000002C14D0FFF7AEFEC4F80080C4E9065786
:10226000C4E90869201DBDE8F04700F096BA502087
:1022700080F31188BFF34F8FBFF36F8FFEE7BDE888
:10228000F087000030B5114900E011460A6882422B
:10229000FBD34B685C18844203D140681844486003
:1022A000084643681C18944209D1084C103C246825
:1022B000A24209D052681A4442600A681268026059
:1022C000814200D0086030BD0460F9E78000002042
:1022D00070B5002441600B4D0061914206D8D11ABF
:1022E0008269914206D2011D686807E09A4203D2D2
:1022F000994201D3012403E0011D286800F050FA3F
:10230000204670BD5800002010B5044600F06CFA5D
:10231000A06B28B15FF0000400F086FA204610BDE3
:102320000124F9E730B589B0304D55E00498002814
:1023300006DADDE90601059A9047049800284BDB90
:10234000069C606910B1201D00F0F2F902A800F0AF
:10235000B9F8024604980A283ED2DFE800F00505E5
:10236000053D263705053D260598A169034601442C
:102370002046FFF7ADFF00B3616A20468847E06959
:10238000012829D1002000900598A1690023421856
:102390001946204601F0C2F878B9502080F3118820
:1023A000BFF34F8FBFF36F8FFEE70598A06128B191
:1023B000811813462046FFF78BFF0DE0502080F375
:1023C0001188BFF34F8FBFF36F8FFEE794F82C0097
:1023D00010B9204600F03CFA002204A9A86800F0D9
:1023E000BBFD0028A2D109B030BD0000580000207C
:1023F0002DE9FC410F46054600F076FB01A800F0F0
:1024000061F80446019818B100F0C4FFBDE8FC81F2
:10241000224EAFB170680068A8B30027291B3A4666
:10242000B06800F093FA00F0B5FF0028EED11C4927
:102430004FF080500860BFF34F8FBFF36F8FE5E719
:10244000A542EBD800F0A6FF30682746C068C468F4
:10245000201D00F06DF9E069012810D1A0692B461C
:1024600041193A462046FFF733FF40B100200346AA
:10247000014600902A46204601F050F820B1616ADA
:1024800020468847C2E707E0502080F31188BFF359
:102490004F8FBFF36F8FFEE70127BFE75800002083
:1024A00004ED00E006484168096829B14168C9683F
:1024B000C9684968016370474FF0FF31FAE70000CF
:1024C0001C00002070B5054600F082FE064E044652
:1024D0003069844203D200F009F8012000E00020B6
:1024E00028602046346170BD58000020F8B5194DB1
:1024F0001FE0C068C4680668201D00F019F9616A11
:1025000020468847E069012813D1A0693044B042D1
:1025100006D924616060211D286800F041F908E0B7
:1025200000200346014600903246204600F0F6FFA8
:1025300038B1286801680029DBD16968C5E9001055
:10254000F8BD502080F31188BFF34F8FBFF36F8F1A
:10255000FEE700005800002008484068401C4FF08B
:10256000500080F3118804D0BFF34F8FBFF36F8FFB
:10257000FEE7BFF34F8FBFF36F8FFEE788000020A9
:10258000074C2068016841B1C0680021D0F8000004
:10259000FFF72EFFFFF7C6FEF3E701210020F7E764
:1025A000580000202DE9F041044600F01DF994F98F
:1025B000455004F1240609E0606A48B1304600F055
:1025C000B1FE08B100F012FA6D1E6DB2002DF3DC01
:1025D0004FF0FF3684F8456000F026F900F004F96A
:1025E00094F9445004F1100709E0206948B13846D5
:1025F00000F098FE08B100F0F9F96D1E6DB2002DE3
:10260000F3DC84F84460BDE8F04100F00DB900004F
:102610002DE9F0410546002700F066FA314E30689A
:1026200008B9FFF757FDF06805424BD1C5B308352F
:1026300068070ED005F00700C0F1080005446807E0
:1026400007D0502080F31188BFF34F8FBFF36F8FF7
:10265000FEE72DB37068854234D822481030014619
:102660000C6801E020460C466168A94202D221684C
:102670000029F7D131688C4224D0076821680160B5
:1026800060680837411B10290FD96019420708D02C
:10269000502080F31188BFF34F8FBFF36F8FFEE799
:1026A00010E041606560FFF7EDFD61687068401AF9
:1026B0007060B268904200D2B060F06801430020C0
:1026C000C4E9000100F066FE780707D0502080F3CF
:1026D0001188BFF34F8FBFF36F8FFEE73846BDE819
:1026E000F08100007000002010B5040006D000F05A
:1026F0007BF8246A00F098F8204610BD502080F343
:102700001188BFF34F8FBFF36F8FFEE710B5031F24
:102710004FF080741C601B1F21F001011960191F0C
:10272000024B0B60143940380A6010BD592500086F
:10273000D0E9013201699A60D0E901235A604A6800
:10274000824201D182684A60002202610868401E0C
:102750000860086870470000034B036003F15C00E9
:10276000086080201060704798080020044B0360C8
:1027700003F15C0008604FF4807010607047000047
:10278000F40A002000F108014FF0FF32C0E9011205
:10279000C160016100210160704700210161704743
:1027A00030B50B685A1C02D000F1080202E0026941
:1027B00004E02246546825689D42FAD953684B606C
:1027C00099608A60516008610168491C016030BDF0
:1027D00042684A6093688B609368596091600861B1
:1027E0000168491C01607047502080F31188BFF3D5
:1027F0004F8FBFF36F8F0A494868401C486001281B
:102800000CD10848006810F0FF0F07D0502080F36B
:102810001188BFF34F8FBFF36F8FFEE77047000043
:102820008800002004ED00E00849486828B1401EF7
:10283000486001D180F311887047502080F31188DF
:10284000BFF34F8FBFF36F8FFEE7000088000020BB
:1028500070B5002827D0144DA0F108046168E8681D
:10286000014207D1502080F31188BFF34F8FBFF38F
:102870006F8FFEE722683AB1502080F31188BFF3D2
:102880004F8FBFF36F8FFEE78143616000F02CF93B
:1028900060686968084468602046FFF7F3FCBDE89B
:1028A000704000F077BD70BD700000204FF0E02058
:1028B00000210161816105494FF47A720968B1FB19
:1028C000F2F1491E416107210161704718000020A3
:1028D00010B5FDF75FFC114910280ED300F1E02080
:1028E00090F8F0030A78904207D2502080F31188C4
:1028F000BFF34F8FBFF36F8FFEE709480068896809
:1029000000F4E060884207D9502080F31188BFF3BB
:102910004F8FBFF36F8FFEE710BD000088000020CF
:102920000CED00E010B5084B002200BF53F8324018
:102930001CB1521C082AF9D310BD43F8321003EB26
:10294000C201486010BD00007C02002070B5154631
:102950000E460446FFF748FF94F944100020491C36
:1029600001D184F8440094F94510491C01D184F840
:102970004500FFF759FFA06B28B92A46314604F1FC
:10298000240000F051F82046BDE87040FFF70ABE71
:1029900010B5020014D00F48806B38B1502080F37E
:1029A0001188BFF34F8FBFF36F8FFEE700F09CF8E5
:1029B00000211046FFF768FA00F0ECFC002807D170
:1029C00005494FF080500860BFF34F8FBFF36F8F02
:1029D00010BD00001C00002004ED00E002498A6ADE
:1029E00002604969416070471C00002001490120D4
:1029F000486270471C00002010B50C4650B10949D0
:102A000009681831FFF7CCFE2046BDE810400121CF
:102A1000FFF73ABA502080F31188BFF34F8FBFF30E
:102A20006F8FFEE71C00002070B514460D4668B19C
:102A30000A4909681831FFF7CBFE0CB14FF0FF359A
:102A400021462846BDE87040FFF71EBA502080F3AB
:102A50001188BFF34F8FBFF36F8FFEE71C0000207C
:102A600030B587B00024039405AA04A903A80494F0
:102A7000FFF772FEDDE903010094CDE901100023A8
:102A800015A11748059A00F06AFB164D00286863E7
:102A90001FD000F013FD012809D0401C19D150208F
:102AA00080F31188BFF34F8FBFF36F8FFEE7502085
:102AB00080F31188BFF34F8FBFF36F8F4FF0FF305C
:102AC00028630120E8616C6107B0BDE8304000F088
:102AD00045B807B030BD000049444C450000000037
:102AE000212100081C0000200248816B491C8163E1
:102AF000704700001C000020164810B5816B11B112
:102B00000121416210BD002141628169124A01E048
:102B1000B9B1491E01EB810352F82330002BF7D0E5
:102B200001EB810302EB830202F1080453685B6846
:102B30005360A34201D15B685360DA68026081612F
:102B400010BD502080F31188BFF34F8FBFF36F8FFC
:102B5000FEE700001C000020BC0200201CB5264936
:102B600008780190FF20087008788DF800009DF823
:102B700000009DF8002000F0F000904207D05020A7
:102B800080F31188BFF34F8FBFF36F8FFEE79DF87F
:102B900000001A4B00F0500018700720986005E004
:102BA0009DF8002052008DF80020401E9DF8002066
:102BB0001206F5D49860032807D0502080F31188BE
:102BC000BFF34F8FBFF36F8FFEE74FF440709860F5
:102BD000019808700A48016841F4700101600168B9
:102BE00041F070410160FFF761FE00205860FDF781
:102BF0009BFA00201CBD000000E400E088000020DB
:102C000020ED00E0F8B517460E46050014D0DEB101
:102C100005FB06F05030FFF7FBFC04000AD0002053
:102C200084F8460004F150023B46314628460094A1
:102C3000FFF7A6FA2046F8BD502080F31188BFF3B5
:102C40004F8FBFF36F8FFEE70020E3E738B5049D99
:102C500018B153B1CAB181B120E0502080F311887E
:102C6000BFF34F8FBFF36F8FFEE7502080F31188C3
:102C7000BFF34F8FBFF36F8FFEE7502080F31188B3
:102C8000BFF34F8FBFF36F8FFEE739B1502080F352
:102C90001188BFF34F8FBFF36F8FFEE750241C46A0
:102CA000012384F846302B460094FFF769FA20464A
:102CB00038BD000070B50D46040025D0FFF794FD27
:102CC000D4E90F20216802FB001161600021A1639B
:102CD0002168A1600A46D4E90F01401E00FB0121D2
:102CE000E16021464FF0FF3001F8440F487004F1D5
:102CF00010008DB1FFF746FD04F12400FFF742FDFF
:102D0000FFF792FD012070BD502080F31188BFF3C2
:102D10004F8FBFF36F8FFEE721690029F0D000F0DD
:102D200001FB0028ECD004494FF080500860BFF34D
:102D30004F8FBFF36F8FE3E704ED00E02DE9FF470E
:102D400082B01D468A464FF00008040003D0BAF155
:102D5000000F08D011E0502080F31188BFF34F8F8F
:102D6000BFF36F8FFEE7206C38B1502080F31188DD
:102D7000BFF34F8FBFF36F8FFEE7022D0AD1E06BD9
:102D8000012807D0502080F31188BFF34F8FBFF385
:102D90006F8FFEE700F00EFA3F4F4FF000094FF043
:102DA000805648B9049838B1502080F31188BFF399
:102DB0004F8FBFF36F8FFEE7FFF716FDA06BE16B40
:102DC000884207D3022D05D00498D0B1B8F1000F86
:102DD0001AD01EE02A4651462046FFF72AF9616ABA
:102DE00019B104F1240000F09DFA20B13E60BFF358
:102DF0004F8FBFF36F8FFFF717FD012006B0BDE8BF
:102E0000F087FFF711FD22E06846FFF7E7FD4FF07E
:102E10000108FFF709FDFFF767FEFFF7E5FC94F9EE
:102E20004400401C01D184F8449094F94500401CB2
:102E300001D184F84590FFF7F7FC04A9684600F03B
:102E400027F930B12046FFF7ADFB00F0A3FA0020D0
:102E5000D4E7FFF7C9FCA06BE16B884213D1FFF701
:102E6000E3FC04F110000499FFF7C6FD2046FFF7CC
:102E700099FB00F08FFA00289ED13E60BFF34F8F80
:102E8000BFF36F8F98E7FFF7CFFC2046FFF78AFB71
:102E900000F080FA90E7000004ED00E02DE9F04733
:102EA0001F4690468946040003D0B9F1000F08D0B0
:102EB00011E0502080F31188BFF34F8FBFF36F8F65
:102EC000FEE7206C38B1502080F31188BFF34F8F9C
:102ED000BFF36F8FFEE7022F0AD1E06B012807D006
:102EE000502080F31188BFF34F8FBFF36F8FFEE741
:102EF000FFF7EEFC5020EFF3118680F31188BFF34B
:102F00004F8FBFF36F8FA06BE16B884206D3022F08
:102F100004D0002086F31188BDE8F08794F945506D
:102F20003A4649462046FFF784F8681C04D06D1CD9
:102F300084F845500120EDE7606A0028FAD004F1DA
:102F4000240000F0EFF90028F4D0B8F1000FF1D020
:102F50000121C8F80010EDE72DE9F747002683B0FE
:102F60008A46040003D0BAF1000F08D011E05020C7
:102F700080F31188BFF34F8FBFF36F8FFEE7206C94
:102F800038B1502080F31188BFF34F8FBFF36F8F9C
:102F9000FEE700F00FF9DFF8F4804FF000094FF082
:102FA000805748B9059838B1502080F31188BFF395
:102FB0004F8FBFF36F8FFEE7FFF716FCA56BC5B110
:102FC00051462046FFF722F86D1EA563206950B1D7
:102FD00004F1100000F0A6F928B1C8F80070BFF3A2
:102FE0004F8FBFF36F8FFFF71FFC012006B0BDE8C6
:102FF000F087059808B11EB106E0FFF715FC27E041
:103000006846FFF7EBFC0126FFF70EFCFFF76CFDAF
:10301000FFF7EAFB94F94400401C01D184F8449086
:1030200094F94500401C01D184F84590FFF7FCFB62
:1030300005A9684600F02CF8002820460AD0FFF7C2
:10304000B1FA00F0A7F92046FFF75EF90028B3D0E7
:103050000020CBE7FFF758F990B104F1240005995F
:10306000FFF7CAFC2046FFF79DFA00F093F900280D
:10307000A2D1C8F80070BFF34F8FBFF36F8F9BE7EB
:103080002046FFF78FFA00F085F995E704ED00E0A0
:103090002DE9F0410C46050011D0C4B1FFF7A4FBA7
:1030A000174B5A696E682068911B471C17D02F6810
:1030B0009B6A9F4219D0964217D8012410E05020F5
:1030C00080F31188BFF34F8FBFF36F8FFEE750205F
:1030D00080F31188BFF34F8FBFF36F8FFEE700249B
:1030E000FFF7A2FB2046BDE8F081884205D9401ACF
:1030F00020602846FFF772FCF1E700202060DCE743
:103100001C0000202DE9FF5F8346DDE90E8799460C
:1031100016468A469000FFF77BFA05001CD05C201B
:10312000FFF776FA040014D00020256384F85900D4
:10313000CDE90240CDE900874B463246514658461C
:10314000FFF72FF82046FEF7CDFE012004B0BDE8C2
:10315000F09F2846FFF77CFB4FF0FF30F6E7F0B515
:1031600085B0DDE90B640A9DA6B1DCB15C27009750
:103170002663022684F85960002604AFCDE9024692
:10318000CDE90057FFF70DF82046FEF7ABFE049897
:1031900005B0F0BD502080F31188BFF34F8FBFF30F
:1031A0006F8FFEE7502080F31188BFF34F8FBFF37E
:1031B0006F8FFEE70548C16919B1806B18B1002017
:1031C0007047012070470220704700001C0000205B
:1031D00001484069704700001C0000202DE9F041C3
:1031E0002E4C0027A06B40B1206A401C2062606A10
:1031F00000B101273846BDE8F0816669761C66613A
:1032000013D16068006838B1502080F31188BFF393
:103210004F8FBFF36F8FFEE76068A1686160A060A9
:10322000A06A401CA062FFF73DF9206BDFF87080B8
:10323000864209D36068006880B16068C068C5686C
:10324000686886420DD220632068C06A00EB800166
:1032500058F821000128CAD90127C8E74FF0FF30EC
:10326000F1E7281DFFF764FAA86A18B105F1180004
:10327000FFF75EFAE86AA169884200D9A06100EB15
:10328000800108EB8100291DFFF7A2FAE86A216896
:10329000C96A8842CED30127CCE700001C00002079
:1032A000BC02002070B504004FF0000133D01B4D6C
:1032B0002868844207D0502080F31188BFF34F8FD5
:1032C000BFF36F8FFEE7206D38B1401E2065E36CC1
:1032D000E26A9A421FD040B11DE0502080F311886D
:1032E000BFF34F8FBFF36F8FFEE7201DFFF720FA6C
:1032F000E06CE062C0F13800A061E06AA969884230
:1033000000D9A861064900EB800001EB8000211D77
:10331000FFF75EFA0121084670BD00001C00002086
:10332000BC02002070B5C068C46854B104F1180034
:103330000646FFF7FDF9144DA86B50B1314613480E
:1033400015E0502080F31188BFF34F8FBFF36F8FCC
:10335000FEE7201DFFF7ECF9E06AA969884200D971
:10336000A8610B4900EB800001EB8000211DFFF7F5
:103370002FFAE06A2968C96A884202D90120686286
:1033800070BD002070BD00001C000020440700201C
:10339000BC0200202DE9F0472C4D00242746A86BE5
:1033A00038B1FFF721FAA86B401EA863A86B40B1A3
:1033B00046E0502080F31188BFF34F8FBFF36F8F2B
:1033C000FEE72969224E0120D1B3A6F59169804616
:1033D0003068E0B1F068C46804F11800FFF7A8F99C
:1033E000201DFFF7A5F9E06AA969884200D9A86104
:1033F00000EB800109EB8100211DFFF7E9F9E06A8C
:103400002968C96A8842E3D3C5F82480E0E70CB193
:10341000FFF748F82C6A4CB14FEA0806FFF7DEFECA
:1034200000B16E62641EF9D100202862686A38B16A
:103430000849012738070860BFF34F8FBFF36F8F2C
:10344000FFF7F2F93846BDE8F08700001C000020C5
:103450004407002004ED00E02DE9FC4781461E46AC
:103460001746884630200A9DFFF7D2F804000AD09C
:10347000CDE9005433463A4641464846FEF7DFFE62
:10348000002084F82C002046BDE8FC877CB530265F
:10349000DDE90654009644B1CDE90054FEF7CFFEB5
:1034A000012084F82C0020467CBD502080F3118838
:1034B000BFF34F8FBFF36F8FFEE7000010B586B0EC
:1034C000FEF778FD114CA068B8B10020039004907D
:1034D00005AA04A903A8FFF749F9DDE903210220A1
:1034E0008DE8070000230AA10B48059AFFF737FE75
:1034F000E06010B106B0012010BD502080F31188AB
:10350000BFF34F8FBFF36F8FFEE70000580000201E
:10351000546D722053766300812500082DE9FF4128
:103520001E46134602000A9D4FF0000016D0144CB0
:10353000A768002F0FD0CDE900130292062917DAF1
:10354000FFF738FE02284FF000030FD00022694633
:10355000A068FFF7F3FB04B0BDE8F081502080F3D2
:103560001188BFF34F8FBFF36F8FFEE72A46EEE758
:103570000023324669463846FFF790FCEBE700002F
:103580005800002000360008000000000000000085
:10359000000000000000000000040000180000000F
:1035A0000000000000000000E835000800000000F6
:1035B000000000000000000000000000000000000B
:1035C000F4350008000000000000000000000000CA
:1035D00000000000000000000102030406070809C3
:1035E00000000000010203046D79517565756530B6
:1035F000310000006D7954696D6572303100000052
:1036000064656661756C745461736B002C360008D8
:1036100000000020940000004A1B0008C03600088B
:1036200094000020BC4E00005A1B0008000000005F
:103630000000000000000000010000001000000079
:10364000000000000024F400000000000000000062
:10365000000000000000000000000000000000006A
:10366000000000000000000000000000000000005A
:10367000000000000000000000000000000000004A
:10368000000000000000000000000000000000003A
:10369000000000000000000000000000000000002A
:1036A000000000000000000000000000000000001A
:1036B0000000000000000000AAAAAAAA0000000062
:04000005080000ED02
:00000001FF
