:020000040800F2
:100000009049002099010008A3210008071F00085B
:10001000A121000879030008152A0008000000004B
:1000200000000000000000000000000001010008C6
:10003000CB0300080000000045010008512700081C
:10004000B3010008B3010008B3010008B3010008C0
:10005000B3010008B3010008B3010008B3010008B0
:10006000B3010008B3010008B30100087D030008D4
:100070008903000895030008B3010008B3010008D4
:10008000B3010008B3010008B3010008B301000880
:10009000B3010008B3010008B3010008B301000870
:1000A000B301000825280008B3010008B3010008C7
:1000B000B3010008B3010008B3010008B301000850
:1000C000B3010008B3010008B3010008A52100082E
:1000D000B3010008B3010008B3010008B301000830
:1000E000B3010008B3010008B3010008DFF80CD029
:1000F00000F098F800480047F92A000890490020CD
:10010000224B19680868B0E8F00F80F30988BFF344
:100110006F8F4FF0000080F311884EF00D0E704786
:100120000000000006480068006880F3088862B696
:1001300061B6BFF34F8FBFF36F8F00DF00BF00BF0B
:1001400008ED00E0EFF30980BFF36F8F0F4B1A68E3
:1001500020E9F00F106008B54FF0500080F31188CF
:10016000BFF34F8FBFF36F8F03F020FD4FF0000000
:1001700080F31188BDE8084019680868B0E8F00FFE
:1001800080F30988BFF36F8F704700BFA80000207D
:10019000EFF3058070470000064880470648004797
:1001A000FEE7FEE7FEE7FEE7FEE7FEE7FEE7FEE727
:1001B000FEE7FEE7DD270008ED000008202A04DB4B
:1001C000203A21FA02F00021704721FA02F3D040D0
:1001D000C2F12002914008431946704740EA0103EA
:1001E0009B0703D009E008C9121F08C0042AFAD2ED
:1001F00003E011F8013B00F8013B521EF9D27047B1
:10020000D2B201E000F8012B491EFBD27047002258
:10021000F6E710B513460A4604461946FFF7F0FF05
:10022000204610BD064C074D06E0E06840F0010393
:1002300094E8070098471034AC42F6D3FFF75AFF12
:10024000E04700080048000870B50446006881686F
:10025000C943C9071CD1816821F00101816000F008
:1002600023FE05460FE000BF00F01EFE401B0228E3
:1002700009D9A06A40F01000A062E06A40F00100D5
:10028000E062012070BD20688068C043C007EBD0E9
:10029000002070BD10B50146406A826A12F0500F0E
:1002A00005D0006A026BBDE8104008461047816A1D
:1002B00041F40071816201688968C1F342410729F4
:1002C0000CD1017B51B9816A21F480718162816A0C
:1002D000C90403D4816A41F00101816200F080F910
:1002E00010BD10B5406A816A41F040018162C16A67
:1002F00041F00401C16200F075F910BD10B5406A0B
:1003000000F06FF910BD0000F8B500260446009615
:1003100000688168C943C90728D0816841F001019C
:100320008160134813490068B0FBF1F000E0401E03
:1003300000900028FBD100F0B7FD054611E000BF9A
:1003400000F0B2FD401B02280BD9A06A40F010005B
:10035000A062E06A40F00100E06284F824600120BD
:10036000F8BD20688068C043C007E9D10020F8BD0F
:10037000A400002040420F00FEE77047014800F053
:10038000DBBA000068020020014800F0D5BA000086
:10039000AC020020014800F0CFBA0000F0020020BB
:1003A00030B590F840500124AC40C56B6C600468D7
:1003B00063604368102B036803D099600068C260D3
:1003C00030BD9A600068C16030BD70477047000062
:1003D00006490020C8610648016941F00401016135
:1003E000016941F04001016170470000780300207D
:1003F00000200240064A0021D16106490A6942F004
:1004000002020A614861086940F0400008617047D3
:100410007803002000200240044B0022DA61044AE5
:10042000136943F0010313610180704778030020D2
:100430000020024014480022C168CB06134904D5AD
:10044000CA6942F00202CA611022C3685B0705D57F
:10045000CB6943F00103CB6142F00402C369DB07BF
:1004600007D0CB6943F00403CB61C16921F00101DE
:10047000C161A2F58071013901D0C2607047C169C4
:1004800021F00101C1617047002002407803002083
:1004900070B5054600F008FD0646114C09E0681CE1
:1004A00007D025B100F000FD801BA84201D9032030
:1004B00070BDE068C007F2D1E068800601D5202059
:1004C000E060E068C00605D4E069C00702D1E068DA
:1004D000400703D5FFF7AEFF012070BD002070BDBF
:1004E00000200240F8B50024009490F8242025460E
:1004F000012A12D0012280F824204A681F23072AEB
:100500000DD20668776B521E02EB820293409F4326
:100510000B6893401F43776319E00220F8BD06681B
:100520000D2A0AD2376BD21F02EB820293409F43FF
:100530000B6893401F43376309E0F76A0D3A02EBFB
:10054000820293409F430B6893401F43F7620A68FF
:10055000072306680A2A0AD3F7680A3A02EB42021E
:1005600093409F438B6893401F43F76008E03769CF
:1005700002EB420293409F438B6893401F433761D5
:100580000A68102A01D0112A20D1124B02689A421F
:1005900017D193681B0219D4936843F40003936046
:1005A0000968102912D10C490C4A0968B1FBF2F113
:1005B00001EB8101490000E0491E00910029FBD1B7
:1005C00004E0816A41F020018162012480F8245016
:1005D0002046F8BD00240140A400002040420F0046
:1005E00070477047704700002DE9F0414FF0000759
:1005F00004003D467ED0A06A002628B9E66284F851
:100600002460204600F07EF82046FFF71DFEA16A18
:10061000C90600D420B1A06A40F01000A06269E0D1
:10062000A16A21F4885141F00201A1626268E16986
:10063000237B0A4347EA43010A43A1684FF48077CA
:10064000B94209D0012907D05FF0000194F814C025
:10065000BCF1010F02D00AE03946F7E7F3B1A36A13
:1006600043F02003A362E36A43F00103E3622368DB
:10067000D3F804C02CF4694C4CEA010CC3F804C054
:1006800021688B68DFF870C003EA0C0313438B60AA
:10069000A168B9420BD0012909D00CE0DFF85CC099
:1006A000A3690CEB43330B4343F40061DFE7218A7A
:1006B0000D05A5F580152168CB6A23F470032B4343
:1006C000CB62216889680E4B1940914208D1E662DD
:1006D000A16A21F0020141F00101A162BDE8F081AF
:1006E000A06A20F0020040F01000A062E06A40F032
:1006F0000100E0620120F1E7FDF7E1FF00E0FFFF0C
:10070000FE0E1FFF70B586B00025064600950195C8
:100710000295039500681A4988422ED119498869C3
:1007200040F400708861886900F400700490886962
:1007300040F0040088618869694600F00400049074
:100740000C200090032001900F4800F0B7FA104CE5
:100750000E48C4E900058020C4E902504000206131
:10076000800060612020C4E90605204600F08EF973
:1007700008B1FFF72BFE3462666206B070BD000060
:10078000002401400010024000080140080002401F
:10079000680200202DE9F047894604463B4900687D
:1007A0003B4F0E1D9046884201D0B84207D13068B9
:1007B00010F4702F03D001252846BDE8F08794F887
:1007C000240001280CD0012084F824002046FFF7E3
:1007D0009BFD05004FF0000004D084F82400EBE7F7
:1007E0000220EAE7A16A40F60162914341F4807178
:1007F000A1622168B94218D1326812F4702F14D066
:10080000A16A41F48011A1623168490505D5A16A48
:1008100021F4005141F48051A162A16AC9040AD5B2
:10082000E16A21F00601E16206E0A26A22F4801288
:10083000A2624968E9E7E06284F82400216A154869
:100840008862216A1448C862216A144808632168D2
:100850006FF0020008602068816841F48071816057
:10086000216843464A464C31206A00F03DF9206831
:100870008168C1F342410729816803D041F48011A6
:10088000816099E741F4A001FAE7000000240140EB
:100890000028014095020008FD020008E30200085C
:1008A00010B590F821100024022903D0042181639F
:1008B00001243DE001680A6822F00E020A60016826
:1008C0000A6822F001020A601A4A0168914201D1C5
:1008D000012121E0174A1432914201D110211BE07D
:1008E000144A2832914201D1891515E0114A3C324F
:1008F000914201D189140FE00E4A5032914202D147
:100900004FF4803108E00B4A6432914202D14FF437
:10091000801101E04FF08071064A083A51600121D0
:1009200080F82110002180F82010416B01B1884728
:10093000204610BD080002402DE9F05FC16B0C6835
:1009400001680B68D0F840C0042202FA0CF2494D4D
:10095000DFF824A1494E4A4FDFF828B1DFF828E13B
:1009600022422CD05A072AD50A68920603D40A6874
:1009700022F004020A600168A94201D1042219E0B0
:10098000514501D1402215E0B14202D14FF48062BD
:1009900010E0B94202D14FF480420BE0594502D138
:1009A0004FF4802206E0714502D14FF4800201E04D
:1009B0004FF080622F4908394A60C16A3BE04FF02E
:1009C000020808FA0CF818EA040F4FF000094FF07B
:1009D000010235D05FEA837832D50B689B0605D4D7
:1009E0000B6823F00A030B6080F821200168A942FC
:1009F00001D1022219E0514501D1202215E0B14276
:100A000002D14FF4007210E0B94202D14FF400520B
:100A10000BE0594502D14FF4003206E0714502D196
:100A20004FF4001201E04FF00072124908394A6099
:100A300080F82090816A00291AD0BDE8F05F08474D
:100A4000082505FA0CF5254212D01B0710D50B68B6
:100A500023F00E030B6090F84010C36B02FA01F113
:100A60005960826380F8212080F82090016BE2E7D2
:100A7000BDE8F09F080002401C0002403000024028
:100A800044000240580002406C00024030B528B3D8
:100A900008C8134914221944B1FBF2F18900C1635B
:100AA00010498163022141771A6843F6F0718A4345
:100AB000D0E900142143D0E902452C4321430469C5
:100AC0002143446921438469214311431960002172
:100AD0004163012242770177084630BD012030BDD5
:100AE000F8FFFDBF0000024070B5044690F82000FA
:100AF000002501280CD0012084F8200094F8216002
:100B00000020012E06D084F820000225284670BD62
:100B1000022070BD022684F82160A0632068066868
:100B200026F0010606602046FFF73AFCE06A00283E
:100B30002068016802D041F00E0106E021F00401B6
:100B400001602068016841F00A01016020680168C5
:100B500041F001010160D9E72DE9F047054626483B
:100B60000F460126017E01290FD001218146017621
:100B70002868DFF888804CF25034022808D0A2465A
:100B80002046FFF785FCA8B131E00220BDE8F087E0
:100B90002046FFF77DFC08BB0120FFF719FC20462B
:100BA000FFF776FCD8F81010064621F00401C8F8CB
:100BB00010101CE04FF0FF303860AC6811E02046A8
:100BC000FFF718FC5046FFF763FCD8F8101006003A
:100BD00021F00201C8F8101001D03C6007E004F5D4
:100BE0008064D5E9020100EB8120A042E7D8002112
:100BF00089F818103046C9E7780300200020024029
:100C00000348016941F08001016100207047000044
:100C1000002002402DE9F05F07461C48884600246A
:100C2000017E15461E46012909D001218146017623
:100C30004CF2503A5046FFF72BFC18B122E002204C
:100C4000BDE8F09F012F02D0022F00D00427D34629
:100C5000DFF83CA0220128463146FFF7AFFA81B207
:100C600008EB4400FFF7D8FB5846FFF711FCDAF811
:100C7000102022F00102CAF8102018B9641CE4B256
:100C8000BC42E7D3002289F81820D9E77803002076
:100C900000200240064900200A69120607D5054ACD
:100CA0004A60054A4A600969090600D50120704773
:100CB0000020024023016745AB89EFCD2DE9F84FB5
:100CC000DFF8B891002409F1040A0AF1040B234665
:100CD0000F270BF1040EC9E00125A5402A40AA42C6
:100CE0007DD1674ED1F804C0ACEB0608B44532D0D4
:100CF00014DCBCF1030F3AD009DCBCF1000F2AD0A0
:100D0000BCF1010F1CD0BCF1020F31D11DE0BCF1D0
:100D1000110F17D0BCF1120F2AD119E0B8F5881FB6
:100D200019D006DCB8F5803F15D0B8F5801F1FD16B
:100D300011E0B8F5001F0ED0B8F5041F18D10AE075
:100D4000CB6815E0CB681B1D12E0CB6808330FE0C1
:100D5000CB680C330CE08B682BB1012B4FF00803F0
:100D600003D0456104E0042302E0056100E00023B4
:100D7000FF2A01D8064601E000F104064FEA840587
:100D800001D9A5F12005D6F8008007FA05FC28EA6C
:100D90000C0803FA05F548EA0508C6F800804D6816
:100DA000ED0062D5374DAE6946F00106AE61AD6922
:100DB00024F0030605F001050095334D06EB050C04
:100DC000DCF80850A607360F07FA06F825EA0805EA
:100DD000DFF8B880404503D14FF0000817E044E049
:100DE000DFF8AC80404502D14FF001080FE0DFF89A
:100DF000A480404502D14FF0020808E0DFF8988057
:100E0000404502D14FF0030801E04FF0040808FA12
:100E100006F848EA0508CCF808804D68D9F8006063
:100E2000ED034D4601D5164300E096432E604D6814
:100E3000DAF80060AD03554601D5164300E096434D
:100E40002E604D68DBF80060ED025D4601D516436B
:100E500000E096432E604D68DEF80060AD027546F6
:100E600001D5164300E096432E60641C0D682A46A7
:100E7000E5407FF431AFBDE8F88F00000004014089
:100E80000000111000100240000001400008014065
:100E9000000C014000100140001401400AB1016142
:100EA00070470904FBE700000148806870470000B4
:100EB00098000020024881680278114481607047E0
:100EC00098000020074810B5016841F0100101604A
:100ED000032000F095F8002000F006F800F03EF83E
:100EE000002010BD0020024000B5014687B000225E
:100EF000192000F065F8192000F054F813488169B2
:100F000041F400618161806905A900F400600690E8
:100F1000684600F093F900F0B1F90D490D4AB0FBB5
:100F2000F1F10D48491E0260416040F2E7320021B4
:100F3000C0E90321816000F0A7FD10B1012007B0D6
:100F400000BD054800F0BCFDF9E7000000100240BC
:100F500040420F00002C0140340300200F4808B528
:100F6000816941F001018161816901F00101009114
:100F7000C16941F08051C161C069002200F0805018
:100F800000900F21901E00F01BF80548416821F0E9
:100F9000E06141F00071416008BD000000100240B6
:100FA00000000140002809DB00F01F0201219140F0
:100FB0004009800000F1E020C0F8001170470000F7
:100FC000F0B40E4B1B680C46C3F30223C3F10705B4
:100FD000042D00D90425191D072901D2002300E0A2
:100FE000DB1E012606FA05F1491E214099409E406C
:100FF000761E16403143F0BC01F00DBD0CED00E053
:10100000064900F0070208684FF6FF03184040EA5F
:101010000220034A10430860704700000CED00E016
:101020000000FA052DE9F84305460078354CC00765
:1010300054D0E0690026C00008D4E06940F0805038
:10104000E061E069012600F0805000902E480168C0
:10105000C90512D40168804641F480710160FFF730
:1010600023FF074605E000BFFFF71EFFC01B6428F3
:1010700023D8D8F80000C005F6D5206A10F44070D7
:1010800021D0A98801F4407181421CD0206A1F49F7
:10109000012220F440700A6000220A602062C0072A
:1010A00011D0FFF701FF074641F2883808E000BF82
:1010B000FFF7FAFEC11B414502D90320BDE8F883C2
:1010C000206A8007F4D5206A696820F440700843DC
:1010D00020621EB1E06920F08050E061287880072E
:1010E00005D56068A96820F440400843606028780E
:1010F000C00605D56068E96820F480000843606098
:101100000020DBE700100240007000404004424233
:101110002DE9F0470F46050061D0434E306800F0DE
:101120000700B84209D2306820F007003843306029
:10113000306800F00700B84251D128683B4C810765
:1011400012D5400703D5606840F4E06060602878FD
:10115000000703D5606840F4605060606068A9686B
:1011600020F0F000084360602878C00728D0686845
:10117000012810D02168022810D0890700292EDA12
:10118000616821F0030101436160FFF78DFE804635
:1011900041F288390DE021688903EFE78901EDE725
:1011A000FFF782FEA0EB0801494502D90320BDE804
:1011B000F0876068696800F00C00B0EB810FEFD138
:1011C000306800F00700B8420BD9306820F0070003
:1011D00038433060306800F00700B84201D0012089
:1011E000E5E72878400705D56068E96820F4E06005
:1011F000084360602878000706D56068296920F4F4
:10120000605040EAC100606000F048F86168084A38
:10121000C1F30311515CC8400649086006480068E4
:10122000FFF762FE0020C2E70020024000100240EB
:1012300080470008A40000209C0000200F220260CC
:101240000C4A536803F003034360536803F0F00350
:101250008360536803F4E063C36052684FF4E06353
:1012600003EAD20202610448006800F00700086047
:101270007047000000100240002002400448054969
:1012800000684968044AC1F3C221515CC8407047F4
:10129000A4000020001002409047000812A185B071
:1012A0000FC98DE80F0014A0144A0068049051681B
:1012B000134801F00C03042B10D0082B0ED1C1F3FE
:1012C0008343C9031DF803000AD5516804AAC1F37A
:1012D0004041515C0A4A5043B0FBF1F005B0704701
:1012E00008494843FAE70000020304050607080915
:1012F0000A0B0C0D0E0F101001020000001002402E
:1013000000127A0000093D002DE9F84F040070D06A
:101310002078C04DC00749D06868C0F3810001281B
:1013200007D06868C0F38100022809D16868C0034B
:1013300006D52868800339D560680028E7D035E0F5
:101340006068B0F5803F0BD010B1B0F5A02F11D080
:10135000286820F480302860286820F4802002E08B
:10136000286840F480302860606890B1FFF79CFDE9
:1013700006460AE0286840F480202860F0E700BFB5
:10138000FFF792FD801B642873D828688003F7D587
:101390000CE0FFF789FD064605E000BFFFF784FD7E
:1013A000801B6428F0D828688003F7D420789A4EF0
:1013B00080074FF001094FF0000839D5686810F038
:1013C0000C0F07D06868C0F38100022809D1686853
:1013D000C00306D42868800714D52069012808D1E5
:1013E00010E02069B0B1C6F80090FFF75DFD074638
:1013F00005E00AE1FFF758FDC01B0228C4D82868A1
:101400008007F7D52868616920F0F80040EAC1003C
:1014100028600DE0C6F80080FFF746FD074604E0AF
:10142000FFF742FDC01B022823D828688007F7D4A5
:10143000207800072CD57948A169D9B1C0F800906F
:10144000FFF732FD074604E0FFF72EFDC01B022820
:101450000FD8686A8007F7D571484FF4FA510068D1
:10146000B0FBF1F0009000BF0098411E0091FAD24D
:101470000EE080E0C0F80080FFF716FD074604E0AC
:10148000FFF712FDC01B022875D8686A8007F7D4E1
:101490002078400760D5E8690027C00008D4E869D3
:1014A00040F08050E861E869012700F0805000902A
:1014B0005C480168C90513D40168834641F4807112
:1014C0000160FFF7F1FC824606E000BFFFF7ECFC8D
:1014D000A0EB0A0064284ED8DBF80000C005F5D563
:1014E000E06801280AD008B1052813D0286A20F046
:1014F00001002862286A20F0040002E0286A40F017
:1015000001002862E06841F2883B98B1FFF7CCFC0B
:1015100082460BE0286A40F004002862EEE700BF34
:10152000FFF7C2FCA0EB0A0159455AD8286A800788
:10153000F6D50CE0FFF7B8FC824605E0FFF7B4FCF7
:10154000A0EB0A0159454CD8286A8007F6D41FB190
:10155000E86920F08050E861E06988B36968C1F308
:101560008101022944D00228C6F8608004D0FFF728
:101570009BFC044638E034E0FFF796FC074604E0A5
:10158000FFF792FCC01B02282BD828688001F7D4F3
:10159000206AB0F5803F05D16868A16820F400306A
:1015A00008436860D4E908010843696821F47411AC
:1015B00008436860C6F86090FFF776FC044606E0D2
:1015C00025E000BFFFF770FC001B022809D828683F
:1015D0008001F7D51BE000BFFFF766FC001B022867
:1015E00002D90320BDE8F88F28688001F4D40EE00A
:1015F0000128F7D06868226A00F48031914204D152
:10160000616A00F47010884201D00120EAE70020EE
:10161000E8E700000010024000004242800442421D
:10162000A4000020007000407047000038B5044658
:10163000006842688168C9434B0606D5CB0704D1D0
:10164000D3435B0601D4216C05E08B0708D4D34358
:101650001B0605D4616C01B02046BDE83040084748
:101660008B0601D54B0646D4D3439B0643D44B0689
:101670000AD494F85130032B3ED0636D43F0040339
:101680006365C36883680093890609D4616D41F07E
:101690000101616581680091016821F040010160EC
:1016A000606D002827D02068416821F0E00141608A
:1016B000012084F85100900722D02068416821F071
:1016C00003014160104DE06C40B14563E06CFFF7F1
:1016D000E7F818B1606D40F040006065A06C00282C
:1016E00009D04563A06CFFF7DBF8002803D0606DDC
:1016F00040F04000606538BDC1688068009038BD2A
:101700002046FFF791FF38BDB121000870B50400F5
:1017100005D00025A56294F8510010B106E0012023
:1017200070BD84F85050204600F02EF8022084F856
:1017300051002068016821F040010160D4E90101F5
:101740000843D4E903121143084361690843218B1C
:1017500001F400710843E1690843216A0843A16A62
:10176000084321680860A069042101EA104021684B
:1017700048602068C16921F40061C161656501208C
:1017800084F85100002070BDF0B585B000240646F5
:10179000009401940294039400682B49884251D12B
:1017A0002A48816941F480518161816901F4805145
:1017B0000491816941F0040181618069244D00F048
:1017C00004000490A02000900220019003200390C8
:1017D00069462846FFF772FA4020CDE900046946C1
:1017E00028460294FFF76AFA1B4D1A488027C5E97C
:1017F0000004C5E902472C616C61AC612846EC61CC
:10180000FFF744F908B1FEF7E1FDF5646E62114897
:10181000124D143001C5102091C5104845F81049EB
:101820006C61AC61EC61FFF731F908B1FEF7CEFDF8
:10183000B5640022052123206E62FFF7C1FB23203F
:10184000FFF7B0FB05B0F0BD0030014000100240D2
:10185000000801401C000240AC020020F002002001
:101860002DE9F84F044690F8500000270A9E1D46C7
:1018700092468B464FF0010901280ED0012084F8D2
:101880005000FFF711FB804694F851006168012871
:101890000CD0B1F5827F07D102E00220BDE8F88FBD
:1018A000A16809B9042801D00227C2E0BBF1000FEA
:1018B00027D0BAF1000F24D01DB394F851000428AA
:1018C00002D0052084F8510000206065C4F838A0DB
:1018D000E587A587C4F830B0E586A58620646064F6
:1018E00020680168490603D4016841F040010160A5
:1018F000E068B0F5006F606805D0E8B3012D46D010
:101900007FE0012795E008B1012D39D1206B2168D6
:101910000088C860206B801C2063E08E401EE0863B
:101920002EE02068816889070FD5E18E69B1B9F191
:10193000010F0AD1216B0988C160206B801C2063D4
:10194000E08E401EE0864FF0000920688168C907DC
:101950000CD0E18F51B1C068A16B0880A06B801CD6
:10196000A063E08F401EE0874FF00109FFF79CFA6B
:10197000A0EB0800B04200E009E001D3701C50D198
:10198000E08E0028CDD1E08F0028CAD13FE0206B47
:10199000216800780873206B401C2063E08E401E95
:1019A000E0862EE02068816889070FD5E18E69B155
:1019B000B9F1010F0AD1216B09780173206B401C2A
:1019C0002063E08E401EE0864FF0000920688168A9
:1019D000C9070CD0E18F51B1C068A16B0870A06B32
:1019E000401CA063E08F401EE0874FF00109FFF725
:1019F0005BFAA0EB0800B04202D3701C01D010E0EB
:101A00007EB1E08E0028CDD1E08F0028CAD14246B9
:101A10003146204600F0D4FB28B101272020606524
:101A200007E0032705E0A06818B92068C16880684E
:101A30000090012084F85100002084F850003846BE
:101A40002CE77047704770B590F83C20012A19D0F8
:101A5000012400F83C4F0222427050F83C3C5A6886
:101A60009D6822F070060A684968324325F08005B7
:101A700029435A6050F83C2C916044700021017059
:101A8000084670BD022070BD10B5040003D094F864
:101A90003D0010B107E0012010BD002084F83C009B
:101AA000204600F00CF8022084F83D00211D20683B
:101AB00000F0BEFE012084F83D00002010BD7047FC
:101AC0000168CA6842F00102CA600068816801F0DA
:101AD0000701062903D0016841F0010101600020DF
:101AE0007047704770B50446006801694FF0000503
:101AF000C943890715D4C168C943890711D4E91EB0
:101B0000016101202077206880698007204602D08B
:101B1000FFF7E7FF04E000F0F3F8204600F0A0F93B
:101B2000257720680169C943490717D4C168C943AB
:101B3000490713D46FF00401016102202077206867
:101B4000806910F4407F204602D0FFF7CAFF04E00E
:101B500000F0D6F8204600F083F925772068016967
:101B6000C943090716D4C168C943090712D46FF0E5
:101B700008010161042020772068C06980072046A1
:101B800002D0FFF7AEFF04E000F0BAF8204600F004
:101B900067F9257720680169C943C90617D4C16868
:101BA000C943C90613D46FF01001016108202077E2
:101BB0002068C06910F4407F204602D0FFF791FFF3
:101BC00004E000F09DF8204600F04AF925772068EF
:101BD0000169C943C90708D1C168C943C90704D10C
:101BE000891E0161204600F083F920680169C9431C
:101BF000090609D4C168C943090605D46FF08001FC
:101C000001612046FFF71DFF20680169C9434906AD
:101C100009D4C168C943490605D46FF04001016188
:101C2000204600F06FF920680169C94389060BD48A
:101C3000C168C943890607D46FF0200101612046BD
:101C4000BDE87040FFF7FEBE70BD000030B585B046
:101C5000002100910191029103910368224902221F
:101C60001224B3F1804F1DD0204D2148AB4227D123
:101C70008B6943F008038B618969039201F00801C5
:101C800004913121CDE900126946FFF717F8194890
:101C9000416821F4406141F0E06141F4006141603C
:101CA00005B030BD886940F0040088618869CDE9DD
:101CB000002400F00400CDE9032069460E480FE03F
:101CC0000E4DAB42ECD18B6943F008038B618969FF
:101CD000039201F008010491A915CDE900146946A9
:101CE000FEF7ECFFDCE700000010024000040040BB
:101CF000000C0140000001400008014000080040C5
:101D0000704770B5044690F83C000D4601280DD090
:101D1000012684F83C60022084F83D0042B1042A88
:101D200018D0082A2AD00C2A4DD139E0022070BDE3
:101D3000206800F0C1FD2068816941F008018161DF
:101D40002068816921F004018161206881692A6924
:101D5000114311E0206800F0D7FD2068816941F44B
:101D6000006181612068816921F48061816120685E
:101D700081692A6941EA0221816124E0206800F03A
:101D8000EFFD2068C16941F00801C1612068C169A7
:101D900021F00401C1612068C1692A69114311E081
:101DA000206800F009FE2068C16941F40061C1614A
:101DB0002068C16921F48061C1612068C1692A6914
:101DC00041EA0221C16184F83D60002084F83C00B2
:101DD00070BD10B5040003D094F83D0010B107E0C9
:101DE000012010BD002084F83C00204600F00CF8D3
:101DF000022084F83D00211D206800F019FD01201B
:101E000084F83D00002010BD08B501681148B1F10B
:101E1000804F0BD0104A914210D1C16941F00201AC
:101E2000C161C06900F00200009008BDC16941F0C5
:101E30000101C161C06900F00100F5E7074A914264
:101E4000F3D1C16941F00401C161C06900F004002F
:101E5000EAE70000001002400004004000080040D3
:101E60007047000010B504460068012200F016FD1E
:101E700009492068884203D1416C41F40041416422
:101E80002068816801F00701062903D0016841F04C
:101E900001010160002010BD002C014010B5044676
:101EA0000068002200F0FAFC104B41F2111120688A
:101EB0008A10984209D1036A0B4206D1036A134281
:101EC00003D1436C23F4004343642068036A0B424C
:101ED00006D1016A114203D1016821F001010160BC
:101EE000012084F83D00002010BD0000002C0140BE
:101EF00000680349884201D1FEF7DCBF704700004B
:101F0000002C01407047FEE73EB5002112480091C9
:101F10000191104A029102609215826001250573B9
:101F2000017502244FF460220461C2614160FEF732
:101F30005BFB07200094CDE9015069460648FEF797
:101F4000D1FA0320CDE9000469460348FEF7CAFA36
:101F50003EBD000000240140200100202DE9F04199
:101F600086B000242C480094019402940394816963
:101F700041F010018161816901F0100104918169D2
:101F800041F020018161816901F0200104918169A2
:101F900041F004018161816901F0040104918169CA
:101FA00041F00801816180691C4E00F008004FF487
:101FB000C0450490002229463046FEF76FFF184FB7
:101FC000002210213846FEF769FFDFF85880002212
:101FD000C0214046FEF762FF1120CDE900500225E6
:101FE00069463046CDE90245FEF768FE102001261D
:101FF000CDE9000669463846CDE90245FEF75EFEAA
:10200000C020CDE9000669464046CDE90245FEF70D
:1020100055FE06B0BDE8F0810010024000100140FE
:1020200000080140000C01400D480C4902220160EB
:102030004FF48271416000218160C0E903120122E6
:102040004261520282613822C2618022C0E90821C5
:1020500081620A21C162FFF759BB000000300140D4
:102060005001002010B58AB0002407941C21684656
:102070000894FEF7CCF812484FF08041016040F21E
:10208000CF21C0E9011440F2E731C0E903148461B3
:10209000FFF79FFE079407A909480894FFF7D3FCB0
:1020A000602000903220CDE90104042269460448F2
:1020B0000494FFF726FE0248FFF7C8FD0AB010BDE2
:1020C000A801002010B58AB0002407941C2168469E
:1020D0000894FEF79CF818481649016040F2CF2199
:1020E000C0E9011440F2CF71C0E903148461FFF725
:1020F00070FE079407A910480894FFF7A4FC60201D
:1021000000903220CDE90104002269460A48049477
:10211000FFF7F7FD042269460748FFF7F2FD0822A2
:1021200069460548FFF7EDFD0348FFF78FFD0AB04C
:1021300010BD000000040040E801002010B58AB086
:10214000002407941C2168460894FEF760F81348A1
:102150001149016040F2CF21C0E9011440F2E7319A
:10216000C0E903148461FFF734FE079407A90B4804
:102170000894FFF768FC602000903220CDE901044C
:102180000822694605480494FFF7BBFD0348FFF7A2
:102190005DFD0AB010BD00000008004028020020CC
:1021A000FEE770470148FFF741BA000050010020E8
:1021B00010B5406A0021C187C186FFF735FA10BD0E
:1021C00038B50B46009204460022802100F008F842
:1021D000002804D0606D40F020006065032038BD09
:1021E0002DE9F0411D4617460E460446DDF81880DD
:1021F00008E0681C06D0FEF757FEA0EB0800A842D6
:102200000BD255B12068806836EA000030D000203B
:10221000B842EED10020BDE8F0812068416821F08D
:10222000E00141606068B0F5827F0BD1A068B0F535
:10223000004F02D0B0F5806F04D12068016821F012
:1022400040010160A06AB0F5005F09D12068016813
:1022500021F4005101602068016841F400510160DF
:10226000012084F85100002084F850000320D2E7B8
:102270000120CDE79AB00222B149B248FEF78AFAAE
:10228000B0480021C830FFF7EDFDAD4CDFF8B88253
:10229000403C216BC8F80010AA480421C830FFF761
:1022A000E1FD08F10409616BC9F80010A548082197
:1022B000C830FFF7D7FD09F1040AA16BCAF8001076
:1022C000A2A00AABD0E90010CDE91610A1A007C862
:1022D00083E80700A2A00DAB07C883E80700A3A20C
:1022E00010AB07CA83E80700A3A013AB07C883E8B5
:1022F00007004FF080416089C862A249A089086048
:1023000016A9052000F0D0FB142000F077FC0AA9E4
:10231000092000F0C9FB142000F070FC0DA9092071
:1023200000F0C2FB142000F069FC10A9092000F0A5
:10233000BBFB142000F062FC13A9092000F0B4FBE1
:10234000142000F05BFC4FF0FA0B462504F13C062C
:102350007B496A462C31152000F07CFB9DF8040077
:1023600040060ED4208BE18A884202D8081A32280F
:1023700007DD2078092801D2801C00E001202070B0
:1023800021839DF806007F2809D0802807D03223BA
:1023900000220DF10601206D00F0FEFC03E0082193
:1023A0007948FFF77BFD9DF80500802807D0322390
:1023B00000220DF10501606D00F0EEFC04E07248B2
:1023C00004218038FFF76AFD9DF80300010603D55C
:1023D000810618D4000603D42178206B401A02E04D
:1023E0002178206B08442063FA2803D95846C4F8A2
:1023F00030B003E0312801D232202063C8F8000059
:10240000322000F0FBFB9DF80300C10603D5410616
:1024100018D4C00603D42178606B401A02E02178FA
:10242000606B08446063FA2803D95846C4F834B096
:1024300003E0312801D232206063C9F80000322065
:1024400000F0DCFB9DF80400C1070DD0810718D413
:10245000C00709D02078A16B0844A063FA2807D9E7
:102460005846C4F838B007E02178A06B401AF4E76A
:10247000312801D23220A063CAF80000322000F0D7
:10248000BDFB9DF80300000721D4606B226B0102A5
:10249000208F114401EB0040E061FEF7FBFB3B495C
:1024A0003420C8600020012709970690606A2449FB
:1024B0000890183906A8FEF74FFB0899002303205F
:1024C000E269FEF7A7FB00B9E762FEF799FBE08A35
:1024D000401C80B2E082B0F5967F15D316A9052086
:1024E00000F0E2FA0AA9092000F0DEFA0DA909209D
:1024F00000F0DAFA10A9092000F0D6FA13A9092091
:1025000000F0D2FA0020E0820D48B0F800C0C4F814
:102510005CC047882766636EB3FBF5F082B23280F9
:10252000A16E6344B1FBF5F080B2708039449A1A11
:10253000081AC4E919200A2000F060FB08E700002F
:10254000400000202001002034040040014300012D
:102550000000000001440001030000000000000032
:10256000014D000001FFFFFFFF000000014F00FFD1
:10257000FF03000000000000014300005A5A5A5AAD
:102580005A0000002C0800402802002000200240D1
:1025900090B000200090019018222DA109A8FDF70D
:1025A0001DFE182230A102A8FDF718FE344D354E4D
:1025B000DFF8D480A5F13C04771464230022694637
:1025C000206D00F071FB0028F7D19DF800006988AC
:1025D0007F2811D22289914228D9228AA18A521AAF
:1025E00050437F2290FBF2F00844306008212748D6
:1025F000FFF738FC002214E0E288914216D2228ACA
:10260000A18A7F38531A5843C31700EB536001EB7C
:10261000E010101A0844306008211C48FFF722FC23
:10262000012239464046FEF739FCC6E709A91520C4
:1026300000F03AFA02A9152000F036FA02A9152096
:1026400000F032FA08211148FFF728FCB5E7000036
:102650000142000000000000000000000000000037
:102660000000000000000000014200FFFF00000029
:10267000000000000000000000000000000000005A
:102680003C0000202C0800400010014028020020DF
:102690001CB500202B4D4FF08046DFF8AC80009039
:1026A000A5F13C0437140190642300226946606D53
:1026B00000F0FAFA0028F7D19DF800002988802858
:1026C00014D9A288914228D9E289618A8038531AA4
:1026D00058437F2390FBF3F00844101A0844F0623B
:1026E00004211A48FFF7BEFB002211E062889142E4
:1026F00013D2E289618A521A5043C21700EB52602A
:1027000001EBE010F06204211048FFF7ABFB01225F
:1027100039464046FEF7C2FBC6E70A49152030316C
:1027200000F0C2F907491520453100F0BDF905490F
:102730001520453100F0B8F904210448FFF7AEFB3D
:10274000B2E700003C00002000100140A80100207A
:1027500010B5502080F31188BFF34F8FBFF36F8FF8
:1027600001F0E4FD18B104494FF0805008600020EA
:1027700080F3118810BD000004ED00E030B593B087
:1027800028216846FDF743FD14210AA8FDF73FFD07
:10279000002401200F9410941194010412948DE8E8
:1027A000130004904FF4E010CDE9081002250795BE
:1027B0006846FEF7A9FD0F20CDE90A056802CDE9BC
:1027C0000C4002210AA80E94FEF7A2FCA803119067
:1027D0000F950FA8FEF726FC13B030BD0D48016819
:1027E00041F00101016041680B4A114041600168FC
:1027F0000A4A11400160016821F4802101604168AA
:1028000021F4FE0141604FF41F0181600449C003BF
:1028100008607047001002400000FFF8FFFFF6FE5E
:1028200008ED00E00148FFF75DB900003403002027
:10283000F0B50268164B174C174D4FF08047984281
:1028400005D0B84203D0A04201D0A84203D122F063
:1028500070064A683243984205D0B84203D0A0427D
:1028600001D0A84203D122F44074CA6822434C69C3
:1028700022F08002224302608A68C2620A68826291
:10288000984201D10969016301214161F0BD000055
:10289000002C0140000400400008004010B501F089
:1028A0001F030121046A99408C430462016A9A4023
:1028B0001143016210BD000030B5026A22F001022E
:1028C0000262026A4368846924F073050C682C4331
:1028D00022F002058A682A430A4DA8420BD122F051
:1028E0000805CA6823F440732A434D6922F00402A4
:1028F0001D438B692B4343608461496841630262D5
:1029000030BD0000002C014030B5026A22F01002F8
:102910000262026A436884690D6824F4E64444EA6A
:1029200005248D6822F0200242EA05120B4DA842D0
:102930000ED1CD6822F0800242EA05124D6923F4DF
:10294000406343EA85038D6922F0400243EA850330
:102950004360846149688163026230BD002C01409C
:1029600030B5026A22F480720262036A4268C46966
:1029700023F4007324F073050C682C438D6843EA3C
:1029800005230C4DA8420ED1CD6823F4006343EA21
:1029900005234D6922F4405242EA05128D6923F461
:1029A000806342EA05124260C4614968C163036200
:1029B00030BD0000002C014030B5026A22F4805284
:1029C0000262046A4268C3690D6823F4E64343EA7D
:1029D00005238D6824F4005444EA0534064DA842CA
:1029E00004D14D6922F4804242EA85124260C361FB
:1029F00049680164046230BD002C014010B500F04C
:102A0000CDFE002805D0D0E90021BDE810400846E1
:102A1000104710BDFEE70907090E002804DB00F18E
:102A2000E02080F80014704700F00F0000F1E02073
:102A300080F8141D704702E008C8121F08C1002A60
:102A4000FAD170477047002001E001C1121F002A2F
:102A5000FBD170472DE9F843DFF8449016468846CD
:102A60000546002210214846FEF718FA0024C82720
:102A70000CE0321908EB040101230A480097FEF725
:102A8000EFFE0220401C6428FCDB641CAC42F0DB3F
:102A90004846BDE8F84301221021FEF7FFB90000C7
:102AA00000080140500100202DE9FC41DFF8408082
:102AB0000E460546002210214046FEF7EFF900249D
:102AC000C8270BE03119012301AA0A480097FEF735
:102AD000C7FE0220401C6428FCDB641CAC42F1DB16
:102AE000012210214046FEF7D9F9BDE8FC81000023
:102AF000000801405001002008B5FEF7E3F9FFF798
:102B00003DFEFFF72BFA3548416941F00101416173
:102B10004069002200F00100009011460B20FEF7F2
:102B20004FFA0B20FEF73EFA002205210C20FEF79B
:102B300047FA0C20FEF736FA002205210D20FEF799
:102B40003FFA0D20FEF72EFAFFF76EFAFFF78AFA2A
:102B5000FFF7B8FAFFF7F2FAFFF7D6F9002120489D
:102B6000FFF780F91F4C606A0068C1B221632062E0
:102B7000C0F30721C0F30740C4E90D1000F058F876
:102B8000194B00220121194800F098F9164AA06556
:102B9000303A0221102000F0C5F8134A2065183A97
:102BA0000221102000F0BEF80F4A60659C3A002117
:102BB0000F4800F031F90C4A6064783A00210D4862
:102BC00000F02AF9084AA064543A00210A4800F0AB
:102BD00023F9E06400F048F8FEE70000001002402E
:102BE000A801002000000020704700087B030008B7
:102BF00075220008912500089126000810B5EFF312
:102C0000058149B9EFF3108131B9084909680229F2
:102C100005D1EFF3118111B16FF0050403E0002439
:102C200008B100F00FFF204610BD0000F8000020A2
:102C3000EFF3058058B9EFF3108040B909490868EF
:102C4000022801D030B109E0EFF3118030B16FF00C
:102C50000500704701200860002070474FF0FF30EA
:102C600070470000F800002010B5EFF3058060B950
:102C7000EFF3108048B90B490868022802D00128F8
:102C800006D00BE0EFF3118040B16FF0050010BDEE
:102C90000220086000F03EFF002010BD4FF0FF3022
:102CA00010BD0000F8000020F8B51D466FF00302CB
:102CB0006FF002064FF00004EFF305834BB9EFF31A
:102CC000108333B9154B1B68022B17D1EFF3118317
:102CD000A3B1F0B1E9B1E5B9002200926A4601F072
:102CE00031FA012817D10098B0B10D494FF080504A
:102CF0000860BFF34F8FBFF36F8F0DE048B141B154
:102D00002A4601F083F9012806D025B16FF00104AD
:102D100002E0144600E034462046F8BDF8000020EA
:102D200004ED00E0F8B514464FF00005EFF305821E
:102D30006ABBEFF3108252BB164A1268022A02D114
:102D4000EFF311821ABB10B309B3ACB1D4E902326C
:102D50006BB1502A1BD32269CAB1676900FB01F627
:102D6000B74214D30025009500F0CAFF07E072B9FE
:102D7000226962B9626952B9002200F09DFF050024
:102D800005D00CB1216800E0002100F025FE2846A6
:102D9000F8BD0000F8000020F8B51D466FF00302F2
:102DA0006FF002064FF00004EFF305834BB9EFF329
:102DB000108333B9164B1B68022B18D1EFF3118324
:102DC000ABB100B3F9B1F5B90022134600926A46DF
:102DD00001F0BEF8012818D10098B8B10D494FF0A4
:102DE00080500860BFF34F8FBFF36F8F0EE050B17C
:102DF00049B100232A4600F0FBFF012806D025B187
:102E00006FF0010402E0144600E034462046F8BDAD
:102E1000F800002004ED00E0F0B585B04FEA0103B2
:102E20004FF00004EFF305810394A1BBEFF3108191
:102E300089BB21490968022902D1EFF3118151BBF5
:102E400048B3802618218DF8104004AD42B31768AE
:102E500007B13D4697691FB139467F1E382F02D210
:102E60001779FF0702D0002005B0F0BD576907B100
:102E7000BE08D2F808C0BCF1000F0DD0D4685C2C9D
:102E800018D312693AB137B18DE806103246294697
:102E900001F00DFA03900DE0D7685FB912694AB9E5
:102EA00003AACDE90012B2B2294601F0D3F90128F4
:102EB00000D003940398D7E7F80000202DE9FC41E7
:102EC0001C461746884606464FF00005EFF305807E
:102ED00078BBEFF3108060BB17480068022802D16E
:102EE000EFF3118028BB26B3082000F0EBFB0300B2
:102EF0001FD0B8F1000FC3E9006711D001220F4EB7
:102F000000208CB1216801B10846A16851B1E46884
:102F1000302C0ED3CDE90061012101F05FFB07E009
:102F20000022ECE7E16821B90121009601F03CFBA9
:102F300005462846BDE8FC81F8000020FD29000870
:102F40002DE9F041134C0F46054666692068001DC7
:102F500000F048FC681C07D137B12168BDE8F0419A
:102F60000D48091D00F08EBC20683544B54245600F
:102F7000216805D2A068BDE8F041091D00F06ABCD7
:102F80006068091D00F066FC206B854200D2256355
:102F9000BDE8F081A8000020880800202DE9F0415C
:102FA000054600F07BFC2D4C2069401C2061206808
:102FB0002B4F10B1E06930B32BE025602069012868
:102FC00027D1002606EB860007EB800000F034FCDA
:102FD000761C382EF6D3234800F02EFC21481430FE
:102FE00000F02AFC1F48283000F026FC1D483C3029
:102FF00000F022FC1B48503000F01EFC19486060B5
:103000001430A06005E02068E96AC06A884200D8F0
:103010002560E06A401CE0626864E86AA169884251
:1030200000D9A06100EB800007EB8000291D00F0B3
:1030300029FC00F053FCE06900280CD02068E96A04
:10304000C06A884207D208494FF080500860BFF339
:103050004F8FBFF36F8FBDE8F0810000A800002004
:10306000D80300203808002004ED00E038B500F057
:1030700015FC104CA068C8B90F4800F0DDFB0E48E5
:10308000143000F0D9FB0C482060143060600A4B0B
:1030900000202833009003F1500210210A2000F094
:1030A0002FFEA06010B105A100F096FCBDE83840ED
:1030B00000F014BCE40000209C080020546D725104
:1030C0000000000030B4026C0B46002A0BD0C1682F
:1030D0001144C1604468A14201D30168C16030BCA1
:1030E0001846FDF77BB830BC70472DE9F041856B81
:1030F000174604460026026C82B1C7B1E068FDF7AE
:103100006DF8E168206C091AE1602268914202D2F0
:103110006168081AE060022F16D017E02068A8B98D
:10312000606801F067F90646002060600EE0A06864
:10313000FDF754F8216CA0680844A06061688842DB
:1031400004D32068A06001E005B16D1E6D1CA5636D
:103150003046BDE8F08110B5044690F8590058B1EA
:1031600001280CD002280FD0502080F31188BFF323
:103170004F8FBFF36F8FFEE7206B00F0C3FB20463D
:10318000BDE8104000F0BEBB10BD00000F4843F288
:103190002051420705D0C01D0C4A20F00700821ABA
:1031A000891A0B4A00230144C2E900030839103A86
:1031B00021F0070111604B600B600B1AC0E900138E
:1031C00093604FF000405360D06070476C10002057
:1031D0000C010020144E154CA6F29C474FF080586D
:1031E000DFF84C9012E000BF00F058FBF068C568B3
:1031F000281D00F0F7FA2069401E2061E068401E9B
:10320000E06000F06BFB2846FFF7A5FFE0680028B0
:10321000EAD138680128F9D9C9F80080BFF34F8F87
:10322000BFF36F8FF2E7000074080020A8000020B1
:1032300004ED00E070B51D46049C51B1C4F80020B7
:10324000C4E90F010121204600F08EFD84F84C50A6
:1032500070BD2460F4E72DE9F0470E46DDE90984EE
:103260001746824691009946089DA522206BFCF7DF
:10327000C7FF6FF00301206B01EB8701084420F0CA
:103280000707780707D0502080F31188BFF34F8FCE
:10329000BFF36F8FFEE72218315C82F83410315C87
:1032A00011B1401C1028F6D3002684F84360382D55
:1032B00000D33725E562C4E91356201D00F0C7FA94
:1032C00004F1180000F0C3FA2461C5F1380064620B
:1032D000A061666584F858604A465146384600F059
:1032E0006FFA2060B8F1000F01D0C8F80040BDE8C7
:1032F000F0872DE9F0471E46DDE9089417460D00DA
:1033000080460ED0002C14D0FFF7B0FEC4F8008029
:10331000C4E90657C4E90869201DBDE8F04700F07C
:1033200096BA502080F31188BFF34F8FBFF36F8F91
:10333000FEE7BDE8F087000030B5114900E0114616
:103340000A688242FBD34B685C18844203D1406810
:1033500018444860084643681C18944209D1084C38
:10336000103C2468A24209D052681A4442600A689C
:1033700012680260814200D0086030BD0460F9E745
:103380000C01002070B5002441600B4D006191429A
:1033900006D8D11A8269914206D2011D686807E0F9
:1033A0009A4203D2994201D3012403E0011D286807
:1033B00000F050FA204670BDE400002010B504462D
:1033C00000F06CFAA06B28B15FF0000400F086FA00
:1033D000204610BD0124F9E730B589B0304D55E0E5
:1033E0000498002806DADDE90601059A904704985A
:1033F00000284BDB069C606910B1201D00F0F2F93B
:1034000002A800F0B9F8024604980A283ED2DFE884
:1034100000F00505053D263705053D260598A169FF
:10342000034601442046FFF7ADFF00B3616A204622
:103430008847E069012829D1002000900598A169FA
:10344000002342181946204601F010F978B950209F
:1034500080F31188BFF34F8FBFF36F8FFEE705989E
:10346000A06128B1811813462046FFF78BFF0DE0BD
:10347000502080F31188BFF34F8FBFF36F8FFEE7AB
:1034800094F82C0010B9204600F03CFA002204A960
:10349000A86800F0BBFD0028A2D109B030BD000033
:1034A000E40000202DE9FC410F46054600F076FBC4
:1034B00001A800F061F80446019818B101F012F873
:1034C000BDE8FC81224EAFB170680068A8B3002748
:1034D000291B3A46B06800F093FA01F003F800287F
:1034E000EED11C494FF080500860BFF34F8FBFF3FF
:1034F0006F8FE5E7A542EBD800F0F4FF3068274670
:10350000C068C468201D00F06DF9E069012810D181
:10351000A0692B4641193A462046FFF733FF40B1D8
:1035200000200346014600902A46204601F09EF8FE
:1035300020B1616A20468847C2E707E0502080F347
:103540001188BFF34F8FBFF36F8FFEE70127BFE7EF
:10355000E400002004ED00E006484168096829B154
:103560004168C968C9684968016370474FF0FF3115
:10357000FAE70000A800002070B5054600F0D0FE74
:10358000064E04463069844203D200F009F8012057
:1035900000E0002028602046346170BDE400002077
:1035A000F8B5194D1FE0C068C4680668201D00F01A
:1035B00019F9616A20468847E069012813D1A0699A
:1035C0003044B04206D924616060211D286800F0B3
:1035D00041F908E0002003460146009032462046AB
:1035E00001F044F838B1286801680029DBD1696826
:1035F000C5E90010F8BD502080F31188BFF34F8F4C
:10360000BFF36F8FFEE70000E40000200848406829
:10361000401C4FF0500080F3118804D0BFF34F8F4F
:10362000BFF36F8FFEE7BFF34F8FBFF36F8FFEE7E0
:1036300014010020074C2068016841B1C0680021D6
:10364000D0F80000FFF72EFFFFF7C6FEF3E70121D9
:103650000020F7E7E40000202DE9F041044600F0E7
:103660001DF994F9455004F1240609E0606A48B157
:10367000304600F0FFFE08B100F012FA6D1E6DB288
:10368000002DF3DC4FF0FF3684F8456000F026F99A
:1036900000F004F994F9445004F1100709E020699E
:1036A00048B1384600F0E6FE08B100F0F9F96D1EA9
:1036B0006DB2002DF3DC84F84460BDE8F04100F009
:1036C0000DB900002DE9F0410546002700F066FA2B
:1036D000314E306808B9FFF759FDF06805424BD10B
:1036E000C5B3083568070ED005F00700C0F1080023
:1036F0000544680707D0502080F31188BFF34F8F2F
:10370000BFF36F8FFEE72DB37068854234D822482F
:10371000103001460C6801E020460C466168A94261
:1037200002D221680029F7D131688C4224D0076881
:103730002168016060680837411B10290FD96019A2
:10374000420708D0502080F31188BFF34F8FBFF39A
:103750006F8FFEE710E041606560FFF7EDFD616887
:103760007068401A7060B268904200D2B060F06831
:1037700001430020C4E9000100F0B4FE780707D03F
:10378000502080F31188BFF34F8FBFF36F8FFEE798
:103790003846BDE8F0810000FC00002010B50400B0
:1037A00006D000F07BF8246A00F098F8204610BD9F
:1037B000502080F31188BFF34F8FBFF36F8FFEE768
:1037C00010B5031F4FF080741C601B1F21F0010116
:1037D0001960191F024B0B60143940380A6010BD84
:1037E0000D360008D0E9013201699A60D0E9012361
:1037F0005A604A68824201D182684A6000220261AE
:103800000868401E0860086870470000034B0360AA
:1038100003F15C000860802010607047B40900204C
:10382000044B036003F15C0008604FF4807010608B
:1038300070470000100C002000F108014FF0FF322B
:10384000C0E90112C16001610021016070470021DF
:103850000161704730B50B685A1C02D000F10802B4
:1038600002E0026904E02246546825689D42FAD9C4
:1038700053684B6099608A60516008610168491C17
:10388000016030BD42684A6093688B6093685960FC
:10389000916008610168491C01607047502080F305
:1038A0001188BFF34F8FBFF36F8F0A494868401CE0
:1038B000486001280CD10848006810F0FF0F07D0BD
:1038C000502080F31188BFF34F8FBFF36F8FFEE757
:1038D000704700001401002004ED00E0084948682A
:1038E00028B1401E486001D180F3118870475020F4
:1038F00080F31188BFF34F8FBFF36F8FFEE7000097
:103900001401002070B5002827D0144DA0F1080440
:103910006168E868014207D1502080F31188BFF345
:103920004F8FBFF36F8FFEE722683AB1502080F3CC
:103930001188BFF34F8FBFF36F8FFEE78143616044
:1039400000F02CF960686968084468602046FFF759
:10395000F3FCBDE8704000F0C5BD70BDFC00002068
:103960004FF0E02000210161816105494FF47A7236
:103970000968B1FBF2F1491E4161072101617047FD
:10398000A400002010B5FCF703FC114910280ED349
:1039900000F1E02090F8F0030A78904207D250201E
:1039A00080F31188BFF34F8FBFF36F8FFEE7094895
:1039B0000068896800F4E060884207D9502080F3ED
:1039C0001188BFF34F8FBFF36F8FFEE710BD00006C
:1039D000140100200CED00E010B5084B002200BFE0
:1039E00053F832401CB1521C082AF9D310BD43F8D9
:1039F000321003EBC201486010BD000098030020A4
:103A000070B515460E460446FFF748FF94F944107A
:103A10000020491C01D184F8440094F94510491C48
:103A200001D184F84500FFF759FFA06B28B92A4659
:103A3000314604F1240000F051F82046BDE8704002
:103A4000FFF70ABE10B5020014D00F48806B38B1E2
:103A5000502080F31188BFF34F8FBFF36F8FFEE7C5
:103A600000F09CF800211046FFF76AFA00F03AFDDA
:103A7000002807D105494FF080500860BFF34F8FF1
:103A8000BFF36F8F10BD0000A800002004ED00E020
:103A900002498A6A0260496941607047A8000020B3
:103AA0000149012048627047A800002010B50C466B
:103AB00050B1094909681831FFF7CCFE2046BDE82E
:103AC00010400121FFF73CBA502080F31188BFF36A
:103AD0004F8FBFF36F8FFEE7A800002070B514462C
:103AE0000D4668B10A4909681831FFF7CBFE0CB1E1
:103AF0004FF0FF3521462846BDE87040FFF720BA59
:103B0000502080F31188BFF34F8FBFF36F8FFEE714
:103B1000A800002030B587B00024039405AA04A9AA
:103B200003A80494FFF772FEDDE903010094CDE9D8
:103B30000110002315A11748059A00F0B8FB164D97
:103B4000002868631FD000F061FD012809D0401CE7
:103B500019D1502080F31188BFF34F8FBFF36F8FBF
:103B6000FEE7502080F31188BFF34F8FBFF36F8FB4
:103B70004FF0FF3028630120E8616C6107B0BDE8B9
:103B8000304000F045B807B030BD000049444C4516
:103B900000000000D5310008A80000200248816B19
:103BA000491C816370470000A8000020164810B52A
:103BB000816B11B10121416210BD00214162816917
:103BC000124A01E0B9B1491E01EB810352F82330DA
:103BD000002BF7D001EB810302EB830202F1080412
:103BE00053685B685360A34201D15B685360DA6835
:103BF0000260816110BD502080F31188BFF34F8FA8
:103C0000BFF36F8FFEE70000A8000020D80300205C
:103C10001CB5264908780190FF20087008788DF8B7
:103C200000009DF800009DF8002000F0F000904298
:103C300007D0502080F31188BFF34F8FBFF36F8FF1
:103C4000FEE79DF800001A4B00F0500018700720A6
:103C5000986005E09DF8002052008DF80020401E7D
:103C60009DF800201206F5D49860032807D0502054
:103C700080F31188BFF34F8FBFF36F8FFEE74FF4D0
:103C800040709860019808700A48016841F470011A
:103C90000160016841F070410160FFF761FE0020A2
:103CA0005860FCF73FFA00201CBD000000E400E073
:103CB0001401002020ED00E0F8B517460E4605007F
:103CC00014D0DEB105FB06F05030FFF7FBFC04001A
:103CD0000AD0002084F8460004F150023B463146E9
:103CE00028460094FFF7A6FA2046F8BD502080F33E
:103CF0001188BFF34F8FBFF36F8FFEE70020E3E71C
:103D000038B5049D18B153B1CAB181B120E050203B
:103D100080F31188BFF34F8FBFF36F8FFEE7502002
:103D200080F31188BFF34F8FBFF36F8FFEE75020F2
:103D300080F31188BFF34F8FBFF36F8FFEE739B168
:103D4000502080F31188BFF34F8FBFF36F8FFEE7D2
:103D500050241C46012384F846302B460094FFF77C
:103D600069FA204638BD000070B50D46040025D024
:103D7000FFF794FDD4E90F20216802FB0011616078
:103D80000021A1632168A1600A46D4E90F01401E09
:103D900000FB0121E16021464FF0FF3001F8440FA4
:103DA000487004F110008DB1FFF746FD04F12400C6
:103DB000FFF742FDFFF792FD012070BD502080F318
:103DC0001188BFF34F8FBFF36F8FFEE72169002982
:103DD000F0D000F04FFB0028ECD004494FF08050A9
:103DE0000860BFF34F8FBFF36F8FE3E704ED00E090
:103DF0002DE9FF4782B01D468A464FF000080400B7
:103E000003D0BAF1000F08D011E0502080F31188E0
:103E1000BFF34F8FBFF36F8FFEE7206C38B1502098
:103E200080F31188BFF34F8FBFF36F8FFEE7022D32
:103E30000AD1E06B012807D0502080F31188BFF32E
:103E40004F8FBFF36F8FFEE700F05CFA3F4F4FF0EC
:103E500000094FF0805648B9049838B1502080F3DB
:103E60001188BFF34F8FBFF36F8FFEE7FFF716FD8B
:103E7000A06BE16B884207D3022D05D00498D0B126
:103E8000B8F1000F1AD01EE02A4651462046FFF72F
:103E90002CF9616A19B104F1240000F0EBFA20B1A9
:103EA0003E60BFF34F8FBFF36F8FFFF717FD012009
:103EB00006B0BDE8F087FFF711FD22E06846FFF786
:103EC000E7FD4FF00108FFF709FDFFF767FEFFF779
:103ED000E5FC94F94400401C01D184F8449094F925
:103EE0004500401C01D184F84590FFF7F7FC04A978
:103EF000684600F075F930B12046FFF7ADFB00F0E1
:103F0000F1FA0020D4E7FFF7C9FCA06BE16B88420F
:103F100013D1FFF7E3FC04F110000499FFF7C6FD8D
:103F20002046FFF799FB00F0DDFA00289ED13E60A5
:103F3000BFF34F8FBFF36F8F98E7FFF7CFFC20469B
:103F4000FFF78AFB00F0CEFA90E7000004ED00E0F6
:103F50002DE9F0471F4690468946040003D0B9F189
:103F6000000F08D011E0502080F31188BFF34F8F6D
:103F7000BFF36F8FFEE7206C38B1502080F31188BB
:103F8000BFF34F8FBFF36F8FFEE7022F0AD1E06BB5
:103F9000012807D0502080F31188BFF34F8FBFF363
:103FA0006F8FFEE7FFF7EEFC5020EFF3118680F3F2
:103FB0001188BFF34F8FBFF36F8FA06BE16B884207
:103FC00006D3022F04D0002086F31188BDE8F087C5
:103FD00094F945503A4649462046FFF786F8681C52
:103FE00004D06D1C84F845500120EDE7606A00287C
:103FF000FAD004F1240000F03DFA0028F4D0B8F122
:10400000000FF1D00121C8F80010EDE72DE9F747C6
:10401000002683B08A46040003D0BAF1000F08D00E
:1040200011E0502080F31188BFF34F8FBFF36F8FE3
:10403000FEE7206C38B1502080F31188BFF34F8F1A
:10404000BFF36F8FFEE700F05DF9DFF8F4804FF00B
:1040500000094FF0805748B9059838B1502080F3D7
:104060001188BFF34F8FBFF36F8FFEE7FFF716FC8A
:10407000A56BC5B151462046FFF724F86D1EA56318
:10408000206950B104F1100000F0F4F928B1C8F82B
:104090000070BFF34F8FBFF36F8FFFF71FFC01203E
:1040A00006B0BDE8F087059808B11EB106E0FFF73D
:1040B00015FC27E06846FFF7EBFC0126FFF70EFC36
:1040C000FFF76CFDFFF7EAFB94F94400401C01D1B7
:1040D00084F8449094F94500401C01D184F845903F
:1040E000FFF7FCFB05A9684600F07AF80028204697
:1040F0000AD0FFF7B1FA00F0F5F92046FFF75EF9B4
:104100000028B3D00020CBE7FFF758F990B104F1B5
:1041100024000599FFF7CAFC2046FFF79DFA00F03E
:10412000E1F90028A2D1C8F80070BFF34F8FBFF3A8
:104130006F8F9BE72046FFF78FFA00F0D3F995E7E2
:1041400004ED00E02DE9F04790468946040003D0D5
:10415000B9F1000F08D011E0502080F31188BFF3AF
:104160004F8FBFF36F8FFEE7206C38B1502080F384
:104170001188BFF34F8FBFF36F8FFEE7FFF702FC8D
:104180005020EFF3118680F31188BFF34F8FBFF3F8
:104190006F8FA76BF7B194F9445049462046FEF75C
:1041A00091FF7F1EA763681C04D06D1C84F84450E7
:1041B000012010E020690028FAD004F1100000F07E
:1041C00059F90028F4D0B8F1000FF1D00121C8F856
:1041D0000010EDE7002086F31188BDE8F0870000AD
:1041E0002DE9F0410C46050011D0C4B1FFF756FB94
:1041F000174B5A696E682068911B471C17D02F68AF
:104200009B6A9F4219D0964217D8012410E0502093
:1042100080F31188BFF34F8FBFF36F8FFEE75020FD
:1042200080F31188BFF34F8FBFF36F8FFEE7002439
:10423000FFF754FB2046BDE8F081884205D9401ABB
:1042400020602846FFF724FCF1E700202060DCE72F
:10425000A80000202DE9FF5F8346DDE90E8799461F
:1042600016468A469000FFF72DFA05001CD05C2008
:10427000FFF728FA040014D00020256384F85900C1
:10428000CDE90240CDE900874B46324651465846BB
:10429000FEF7E1FF2046FEF781FE012004B0BDE8F5
:1042A000F09F2846FFF72EFB4FF0FF30F6E7F0B502
:1042B00085B0DDE90B640A9DA6B1DCB15C270097EF
:1042C0002663022684F85960002604AFCDE9024631
:1042D000CDE90057FEF7BFFF2046FEF75FFE0498CA
:1042E00005B0F0BD502080F31188BFF34F8FBFF3AE
:1042F0006F8FFEE7502080F31188BFF34F8FBFF31D
:104300006F8FFEE70548C16919B1806B18B10020B5
:10431000704701207047022070470000A80000206D
:104320000148406970470000A80000202DE9F041D5
:104330002E4C0027A06B40B1206A401C2062606AAE
:1043400000B101273846BDE8F0816669761C6661D8
:1043500013D16068006838B1502080F31188BFF332
:104360004F8FBFF36F8FFEE76068A1686160A06048
:10437000A06A401CA062FFF7EFF8206BDFF87080A6
:10438000864209D36068006880B16068C068C5680B
:10439000686886420DD220632068C06A00EB800105
:1043A00058F821000128CAD90127C8E74FF0FF308B
:1043B000F1E7281DFFF716FAA86A18B105F11800F1
:1043C000FFF710FAE86AA169884200D9A06100EB02
:1043D000800108EB8100291DFFF754FAE86A216883
:1043E000C96A8842CED30127CCE70000A80000208C
:1043F000D803002070B504004FF0000133D01B4DEE
:104400002868844207D0502080F31188BFF34F8F73
:10441000BFF36F8FFEE7206D38B1401E2065E36C5F
:10442000E26A9A421FD040B11DE0502080F311880B
:10443000BFF34F8FBFF36F8FFEE7201DFFF7D2F959
:10444000E06CE062C0F13800A061E06AA9698842CE
:1044500000D9A861064900EB800001EB8000211D16
:10446000FFF710FA0121084670BD0000A8000020E7
:10447000D803002070B5C068C46854B104F11800B6
:104480000646FFF7AFF9144DA86B50B131461348FB
:1044900015E0502080F31188BFF34F8FBFF36F8F6B
:1044A000FEE7201DFFF79EF9E06AA969884200D95E
:1044B000A8610B4900EB800001EB8000211DFFF794
:1044C000E1F9E06A2968C96A884202D90120686274
:1044D00070BD002070BD0000A80000206008002012
:1044E000D80300202DE9F0472C4D00242746A86B67
:1044F00038B1FFF7D3F9A86B401EA863A86B40B191
:1045000046E0502080F31188BFF34F8FBFF36F8FC9
:10451000FEE72969224E0120D1B3A6F591698046B4
:104520003068E0B1F068C46804F11800FFF75AF988
:10453000201DFFF757F9E06AA969884200D9A861F0
:1045400000EB800109EB8100211DFFF79BF9E06A78
:104550002968C96A8842E3D3C5F82480E0E70CB132
:10456000FEF7FAFF2C6A4CB14FEA0806FFF7DEFEB1
:1045700000B16E62641EF9D100202862686A38B109
:104580000849012738070860BFF34F8FBFF36F8FCB
:10459000FFF7A4F93846BDE8F0870000A800002026
:1045A0006008002004ED00E02DE9FC4781461E462E
:1045B0001746884630200A9DFFF784F804000AD089
:1045C000CDE9005433463A4641464846FEF791FE4F
:1045D000002084F82C002046BDE8FC877CB53026FE
:1045E000DDE90654009644B1CDE90054FEF781FEA2
:1045F000012084F82C0020467CBD502080F31188D7
:10460000BFF34F8FBFF36F8FFEE7000010B586B08A
:10461000FEF72CFD114CA068B8B100200390049067
:1046200005AA04A903A8FFF7FBF8DDE9032102208E
:104630008DE8070000230AA10B48059AFFF737FE13
:10464000E06010B106B0012010BD502080F3118849
:10465000BFF34F8FBFF36F8FFEE70000E400002031
:10466000546D722053766300353600082DE9FF4102
:104670001E46134602000A9D4FF0000016D0144C4F
:10468000A768002F0FD0CDE900130292062917DA90
:10469000FFF738FE02284FF000030FD000226946D2
:1046A000A068FFF7A5FB04B0BDE8F081502080F3BF
:1046B0001188BFF34F8FBFF36F8FFEE72A46EEE7F7
:1046C0000023324669463846FFF742FCEBE700001C
:1046D000E4000020D44700080000000000000000B3
:1046E00000000000000000000004000018000000AE
:1046F0000000000000000000BC47000800000000AF
:1047000000000000000000000000000000020000A7
:10471000080000000000000000000000C84700087A
:104720000000000000000000000000000000000089
:10473000000200000800000000000000000000006F
:104740009847000800000000000000000000000082
:104750000000000000000000B0470008000000005A
:104760000000000000000000000000000000000049
:10477000A447000800000000000000000000000046
:104780000000000000000000010203040607080901
:1047900000000000010203046D79517565756530F4
:1047A000310000006D7954696D6572303100000090
:1047B0006D79517565756530320000006D79546111
:1047C000736B3032000000006D795461736B3033CD
:1047D0000000000064656661756C745461736B0061
:1047E000004800080000002020010000362A0008D0
:1047F000204900082001002070480000462A0008D7
:1048000001003C0F280AB80BD007E803E803D007E3
:10481000D007F401F40100000000000000000000D7
:104820000000000000FC0008000000000000000084
:1048300032000000320000003200000000000000E2
:104840000000000000000000000000000000000068
:104850000000000000000000000000000000000058
:104860000000000000000000000000000142000005
:104870000000000000000000000000000000000038
:1048800000014200FFFF00000000000000000000E7
:104890000000000000000000010000001000000007
:1048A000000000000024F4000000000000000000F0
:1048B00000000000000000000000000000000000F8
:1048C00000000000000000000000000000000000E8
:1048D00000000000000000000000000000000000D8
:1048E00000000000000000000000000000000000C8
:1048F00000000000000000000000000000000000B8
:1049000000000000000000000000000000000000A7
:104910000000000000000000AAAAAAAA00000000EF
:04000005080000ED02
:00000001FF
